{
  "contractName": "FlightSuretyApp",
  "abi": [
    {
      "constant": true,
      "inputs": [],
      "name": "REGISTRATION_FEE",
      "outputs": [
        {
          "name": "",
          "type": "uint256"
        }
      ],
      "payable": false,
      "stateMutability": "view",
      "type": "function"
    },
    {
      "inputs": [
        {
          "name": "dataContractAddress",
          "type": "address"
        }
      ],
      "payable": false,
      "stateMutability": "nonpayable",
      "type": "constructor"
    },
    {
      "anonymous": false,
      "inputs": [
        {
          "indexed": false,
          "name": "airlineName",
          "type": "string"
        }
      ],
      "name": "Registered",
      "type": "event"
    },
    {
      "anonymous": false,
      "inputs": [
        {
          "indexed": false,
          "name": "flight",
          "type": "string"
        }
      ],
      "name": "RegisteredFlight",
      "type": "event"
    },
    {
      "anonymous": false,
      "inputs": [
        {
          "indexed": false,
          "name": "airlineName",
          "type": "string"
        }
      ],
      "name": "Approved",
      "type": "event"
    },
    {
      "anonymous": false,
      "inputs": [
        {
          "indexed": false,
          "name": "passengerKey",
          "type": "bytes32"
        },
        {
          "indexed": false,
          "name": "passengerAddress",
          "type": "address"
        }
      ],
      "name": "PassengerInsured",
      "type": "event"
    },
    {
      "anonymous": false,
      "inputs": [
        {
          "indexed": false,
          "name": "passengerAddress",
          "type": "address"
        }
      ],
      "name": "CreditWithdrawal",
      "type": "event"
    },
    {
      "anonymous": false,
      "inputs": [
        {
          "indexed": false,
          "name": "airline",
          "type": "address"
        },
        {
          "indexed": false,
          "name": "flight",
          "type": "string"
        },
        {
          "indexed": false,
          "name": "timestamp",
          "type": "uint256"
        },
        {
          "indexed": false,
          "name": "status",
          "type": "uint8"
        }
      ],
      "name": "FlightStatusInfo",
      "type": "event"
    },
    {
      "anonymous": false,
      "inputs": [
        {
          "indexed": false,
          "name": "airline",
          "type": "address"
        },
        {
          "indexed": false,
          "name": "flight",
          "type": "string"
        },
        {
          "indexed": false,
          "name": "timestamp",
          "type": "uint256"
        },
        {
          "indexed": false,
          "name": "status",
          "type": "uint8"
        }
      ],
      "name": "OracleReport",
      "type": "event"
    },
    {
      "anonymous": false,
      "inputs": [
        {
          "indexed": false,
          "name": "index",
          "type": "uint8"
        },
        {
          "indexed": false,
          "name": "airline",
          "type": "address"
        },
        {
          "indexed": false,
          "name": "flight",
          "type": "string"
        },
        {
          "indexed": false,
          "name": "timestamp",
          "type": "uint256"
        }
      ],
      "name": "OracleRequest",
      "type": "event"
    },
    {
      "anonymous": false,
      "inputs": [
        {
          "indexed": false,
          "name": "result",
          "type": "string"
        },
        {
          "indexed": false,
          "name": "statusCode",
          "type": "uint8"
        },
        {
          "indexed": false,
          "name": "flight",
          "type": "string"
        }
      ],
      "name": "FlightStatusResult",
      "type": "event"
    },
    {
      "constant": true,
      "inputs": [],
      "name": "isOperational",
      "outputs": [
        {
          "name": "",
          "type": "bool"
        }
      ],
      "payable": false,
      "stateMutability": "view",
      "type": "function"
    },
    {
      "constant": false,
      "inputs": [
        {
          "name": "airlineAddress",
          "type": "address"
        },
        {
          "name": "airlineName",
          "type": "string"
        }
      ],
      "name": "registerAirline",
      "outputs": [],
      "payable": false,
      "stateMutability": "nonpayable",
      "type": "function"
    },
    {
      "constant": false,
      "inputs": [],
      "name": "approveAirline",
      "outputs": [],
      "payable": true,
      "stateMutability": "payable",
      "type": "function"
    },
    {
      "constant": true,
      "inputs": [],
      "name": "getBalance",
      "outputs": [
        {
          "name": "",
          "type": "uint256"
        }
      ],
      "payable": false,
      "stateMutability": "view",
      "type": "function"
    },
    {
      "constant": false,
      "inputs": [
        {
          "name": "flight",
          "type": "string"
        },
        {
          "name": "airline",
          "type": "address"
        },
        {
          "name": "timestamp",
          "type": "uint256"
        }
      ],
      "name": "registerFlight",
      "outputs": [],
      "payable": false,
      "stateMutability": "nonpayable",
      "type": "function"
    },
    {
      "constant": false,
      "inputs": [
        {
          "name": "flight",
          "type": "string"
        },
        {
          "name": "airline",
          "type": "address"
        },
        {
          "name": "timestamp",
          "type": "uint256"
        }
      ],
      "name": "buyFlightInsurance",
      "outputs": [],
      "payable": true,
      "stateMutability": "payable",
      "type": "function"
    },
    {
      "constant": false,
      "inputs": [
        {
          "name": "flight",
          "type": "string"
        },
        {
          "name": "airline",
          "type": "address"
        },
        {
          "name": "timestamp",
          "type": "uint256"
        }
      ],
      "name": "passengerCreditWithdraw",
      "outputs": [],
      "payable": true,
      "stateMutability": "payable",
      "type": "function"
    },
    {
      "constant": false,
      "inputs": [
        {
          "name": "airline",
          "type": "address"
        },
        {
          "name": "flight",
          "type": "string"
        },
        {
          "name": "timestamp",
          "type": "uint256"
        }
      ],
      "name": "fetchFlightStatus",
      "outputs": [],
      "payable": false,
      "stateMutability": "nonpayable",
      "type": "function"
    },
    {
      "constant": false,
      "inputs": [],
      "name": "registerOracle",
      "outputs": [],
      "payable": true,
      "stateMutability": "payable",
      "type": "function"
    },
    {
      "constant": true,
      "inputs": [],
      "name": "getMyIndexes",
      "outputs": [
        {
          "name": "",
          "type": "uint8[3]"
        }
      ],
      "payable": false,
      "stateMutability": "view",
      "type": "function"
    },
    {
      "constant": false,
      "inputs": [
        {
          "name": "index",
          "type": "uint8"
        },
        {
          "name": "airline",
          "type": "address"
        },
        {
          "name": "flight",
          "type": "string"
        },
        {
          "name": "timestamp",
          "type": "uint256"
        },
        {
          "name": "statusCode",
          "type": "uint8"
        }
      ],
      "name": "submitOracleResponse",
      "outputs": [],
      "payable": false,
      "stateMutability": "nonpayable",
      "type": "function"
    }
  ],
  "bytecode": "0x60806040526000604051908082528060200260200182016040528015620000355781602001602082028038833980820191505090505b50600190805190602001906200004d92919062000123565b506000600260146101000a81548160ff021916908360ff1602179055503480156200007757600080fd5b506040516020806200419783398101806040528101908080519060200190929190505050336000806101000a81548173ffffffffffffffffffffffffffffffffffffffff021916908373ffffffffffffffffffffffffffffffffffffffff16021790555080600260006101000a81548173ffffffffffffffffffffffffffffffffffffffff021916908373ffffffffffffffffffffffffffffffffffffffff16021790555050620001f8565b8280548282559060005260206000209081019282156200019f579160200282015b828111156200019e5782518260006101000a81548173ffffffffffffffffffffffffffffffffffffffff021916908373ffffffffffffffffffffffffffffffffffffffff1602179055509160200191906001019062000144565b5b509050620001ae9190620001b2565b5090565b620001f591905b80821115620001f157600081816101000a81549073ffffffffffffffffffffffffffffffffffffffff021916905550600101620001b9565b5090565b90565b613f8f80620002086000396000f3006080604052600436106100ba576000357c0100000000000000000000000000000000000000000000000000000000900463ffffffff16806312065fe0146100bf578063339d2590146100ea5780633ce6b754146100f4578063538a0d9c1461017a57806353908f911461020d5780635f1cc0e61461029357806364b4f751146102e657806379cf5ab814610311578063c10f27001461031b578063cd905dff1461039a578063ee38a749146103c9578063f83f11c014610452575b600080fd5b3480156100cb57600080fd5b506100d46104b7565b6040518082815260200191505060405180910390f35b6100f26104d6565b005b610178600480360381019080803590602001908201803590602001908080601f0160208091040260200160405190810160405280939291908181526020018383808284378201915050505050509192919290803573ffffffffffffffffffffffffffffffffffffffff169060200190929190803590602001909291905050506105fe565b005b34801561018657600080fd5b5061020b600480360381019080803590602001908201803590602001908080601f0160208091040260200160405190810160405280939291908181526020018383808284378201915050505050509192919290803573ffffffffffffffffffffffffffffffffffffffff16906020019092919080359060200190929190505050610af0565b005b610291600480360381019080803590602001908201803590602001908080601f0160208091040260200160405190810160405280939291908181526020018383808284378201915050505050509192919290803573ffffffffffffffffffffffffffffffffffffffff16906020019092919080359060200190929190505050610e7a565b005b34801561029f57600080fd5b506102a8611629565b6040518082600360200280838360005b838110156102d35780820151818401526020810190506102b8565b5050505090500191505060405180910390f35b3480156102f257600080fd5b506102fb61179e565b6040518082815260200191505060405180910390f35b6103196117aa565b005b34801561032757600080fd5b50610398600480360381019080803560ff169060200190929190803573ffffffffffffffffffffffffffffffffffffffff16906020019092919080359060200190820180359060200191909192939192939080359060200190929190803560ff169060200190929190505050611cb5565b005b3480156103a657600080fd5b506103af612412565b604051808215151515815260200191505060405180910390f35b3480156103d557600080fd5b50610450600480360381019080803573ffffffffffffffffffffffffffffffffffffffff169060200190929190803590602001908201803590602001908080601f01602080910402602001604051908101604052809392919081815260200183838082843782019150505050505091929192905050506124da565b005b34801561045e57600080fd5b506104b5600480360381019080803573ffffffffffffffffffffffffffffffffffffffff16906020019092919080359060200190820180359060200191909192939192939080359060200190929190505050612ed5565b005b60003073ffffffffffffffffffffffffffffffffffffffff1631905090565b6104de613da9565b670de0b6b3a7640000341015151561055e576040517f08c379a000000000000000000000000000000000000000000000000000000000815260040180806020018281038252601c8152602001807f526567697374726174696f6e206665652069732072657175697265640000000081525060200191505060405180910390fd5b6105673361336c565b9050604080519081016040528060011515815260200182815250600360003373ffffffffffffffffffffffffffffffffffffffff1673ffffffffffffffffffffffffffffffffffffffff16815260200190815260200160002060008201518160000160006101000a81548160ff0219169083151502179055506020820151816001019060036105f7929190613dcc565b5090505050565b600080600260009054906101000a900473ffffffffffffffffffffffffffffffffffffffff1673ffffffffffffffffffffffffffffffffffffffff1663e48c4f51868686336040518563ffffffff167c010000000000000000000000000000000000000000000000000000000002815260040180806020018573ffffffffffffffffffffffffffffffffffffffff1673ffffffffffffffffffffffffffffffffffffffff1681526020018481526020018373ffffffffffffffffffffffffffffffffffffffff1673ffffffffffffffffffffffffffffffffffffffff168152602001828103825286818151815260200191508051906020019080838360005b838110156107185780820151818401526020810190506106fd565b50505050905090810190601f1680156107455780820380516001836020036101000a031916815260200191505b5095505050505050602060405180830381600087803b15801561076757600080fd5b505af115801561077b573d6000803e3d6000fd5b505050506040513d602081101561079157600080fd5b81019080805190602001909291905050509150600082111515610842576040517f08c379a00000000000000000000000000000000000000000000000000000000081526004018080602001828103825260358152602001807f50617373656e67657220686173206e6f20696e737572616e6365207061796d6581526020017f6e7420637265646974206f75747374616e64696e67000000000000000000000081525060400191505060405180910390fd5b848484336040516020018085805190602001908083835b60208310151561087e5780518252602082019150602081019050602083039250610859565b6001836020036101000a0380198251168184511680821785525050505050509050018473ffffffffffffffffffffffffffffffffffffffff1673ffffffffffffffffffffffffffffffffffffffff166c010000000000000000000000000281526014018381526020018273ffffffffffffffffffffffffffffffffffffffff1673ffffffffffffffffffffffffffffffffffffffff166c010000000000000000000000000281526014019450505050506040516020818303038152906040526040518082805190602001908083835b602083101515610972578051825260208201915060208101905060208303925061094d565b6001836020036101000a03801982511681845116808217855250505050505090500191505060405180910390209050600260009054906101000a900473ffffffffffffffffffffffffffffffffffffffff1673ffffffffffffffffffffffffffffffffffffffff16633c8e1ce282336040518363ffffffff167c01000000000000000000000000000000000000000000000000000000000281526004018083600019166000191681526020018273ffffffffffffffffffffffffffffffffffffffff1673ffffffffffffffffffffffffffffffffffffffff16815260200192505050600060405180830381600087803b158015610a6e57600080fd5b505af1158015610a82573d6000803e3d6000fd5b505050507f81cdf6332c7d0abe20cccb619ef59965431f690747c9c54daf6d0cf1a0fac69a33604051808273ffffffffffffffffffffffffffffffffffffffff1673ffffffffffffffffffffffffffffffffffffffff16815260200191505060405180910390a15050505050565b6000600260009054906101000a900473ffffffffffffffffffffffffffffffffffffffff1673ffffffffffffffffffffffffffffffffffffffff166366d2190d846040518263ffffffff167c0100000000000000000000000000000000000000000000000000000000028152600401808273ffffffffffffffffffffffffffffffffffffffff1673ffffffffffffffffffffffffffffffffffffffff168152602001915050602060405180830381600087803b158015610baf57600080fd5b505af1158015610bc3573d6000803e3d6000fd5b505050506040513d6020811015610bd957600080fd5b8101908080519060200190929190505050905060011515811515141515610c8e576040517f08c379a00000000000000000000000000000000000000000000000000000000081526004018080602001828103825260388152602001807f4169726c696e65206973206e6f7420617070726f76656420746f20706172746981526020017f63697061746520696e20696e737572616e636520706f6f6c000000000000000081525060400191505060405180910390fd5b600260009054906101000a900473ffffffffffffffffffffffffffffffffffffffff1673ffffffffffffffffffffffffffffffffffffffff1663538a0d9c8585856040518463ffffffff167c010000000000000000000000000000000000000000000000000000000002815260040180806020018473ffffffffffffffffffffffffffffffffffffffff1673ffffffffffffffffffffffffffffffffffffffff168152602001838152602001828103825285818151815260200191508051906020019080838360005b83811015610d72578082015181840152602081019050610d57565b50505050905090810190601f168015610d9f5780820380516001836020036101000a031916815260200191505b50945050505050600060405180830381600087803b158015610dc057600080fd5b505af1158015610dd4573d6000803e3d6000fd5b505050507fa38d918ed1d1ac908e6e717bcb09c15a2a9857791883f9df1db515ca55d58f82846040518080602001828103825283818151815260200191508051906020019080838360005b83811015610e3a578082015181840152602081019050610e1f565b50505050905090810190601f168015610e675780820380516001836020036101000a031916815260200191505b509250505060405180910390a150505050565b600080600080670de0b6b3a76400003411151515610f26576040517f08c379a00000000000000000000000000000000000000000000000000000000081526004018080602001828103825260288152602001807f53656e64206d6178696d756d206f66203120657468657220746f20627579206981526020017f6e737572616e636500000000000000000000000000000000000000000000000081525060400191505060405180910390fd5b8686866040516020018084805190602001908083835b602083101515610f615780518252602082019150602081019050602083039250610f3c565b6001836020036101000a0380198251168184511680821785525050505050509050018373ffffffffffffffffffffffffffffffffffffffff1673ffffffffffffffffffffffffffffffffffffffff166c0100000000000000000000000002815260140182815260200193505050506040516020818303038152906040526040518082805190602001908083835b6020831015156110135780518252602082019150602081019050602083039250610fee565b6001836020036101000a03801982511681845116808217855250505050505090500191505060405180910390209350600260009054906101000a900473ffffffffffffffffffffffffffffffffffffffff1673ffffffffffffffffffffffffffffffffffffffff166358ac36a3856040518263ffffffff167c0100000000000000000000000000000000000000000000000000000000028152600401808260001916600019168152602001915050602060405180830381600087803b1580156110db57600080fd5b505af11580156110ef573d6000803e3d6000fd5b505050506040513d602081101561110557600080fd5b81019080805190602001909291905050509250600115158315151415156111ba576040517f08c379a000000000000000000000000000000000000000000000000000000000815260040180806020018281038252602a8152602001807f466c69676874206e6f74205265676973746572656420736f2063616e6e6f742081526020017f626520696e73757265640000000000000000000000000000000000000000000081525060400191505060405180910390fd5b868686336040516020018085805190602001908083835b6020831015156111f657805182526020820191506020810190506020830392506111d1565b6001836020036101000a0380198251168184511680821785525050505050509050018473ffffffffffffffffffffffffffffffffffffffff1673ffffffffffffffffffffffffffffffffffffffff166c010000000000000000000000000281526014018381526020018273ffffffffffffffffffffffffffffffffffffffff1673ffffffffffffffffffffffffffffffffffffffff166c010000000000000000000000000281526014019450505050506040516020818303038152906040526040518082805190602001908083835b6020831015156112ea57805182526020820191506020810190506020830392506112c5565b6001836020036101000a03801982511681845116808217855250505050505090500191505060405180910390209150600260009054906101000a900473ffffffffffffffffffffffffffffffffffffffff1673ffffffffffffffffffffffffffffffffffffffff1663c31a0f16836040518263ffffffff167c0100000000000000000000000000000000000000000000000000000000028152600401808260001916600019168152602001915050602060405180830381600087803b1580156113b257600080fd5b505af11580156113c6573d6000803e3d6000fd5b505050506040513d60208110156113dc57600080fd5b81019080805190602001909291905050509050600015158115151415156114b7576040517f08c379a00000000000000000000000000000000000000000000000000000000081526004018080602001828103825260448152602001807f50617373656e67657220616c726561647920626f7567687420696e737572616e81526020017f636520666f72207468697320666c696768742e2043616e6e6f7420627579207481526020017f776963650000000000000000000000000000000000000000000000000000000081525060600191505060405180910390fd5b600260009054906101000a900473ffffffffffffffffffffffffffffffffffffffff1673ffffffffffffffffffffffffffffffffffffffff16634c00257f348685336040518563ffffffff167c010000000000000000000000000000000000000000000000000000000002815260040180846000191660001916815260200183600019166000191681526020018273ffffffffffffffffffffffffffffffffffffffff1673ffffffffffffffffffffffffffffffffffffffff16815260200193505050506000604051808303818588803b15801561159457600080fd5b505af11580156115a8573d6000803e3d6000fd5b50505050507f7e90b13f2c96fdeb953f7b009d735760e08ff947ec82869215c1705f9b3f9a0182336040518083600019166000191681526020018273ffffffffffffffffffffffffffffffffffffffff1673ffffffffffffffffffffffffffffffffffffffff1681526020019250505060405180910390a150505050505050565b611631613da9565b600360003373ffffffffffffffffffffffffffffffffffffffff1673ffffffffffffffffffffffffffffffffffffffff16815260200190815260200160002060000160009054906101000a900460ff1615156116f5576040517f08c379a000000000000000000000000000000000000000000000000000000000815260040180806020018281038252601b8152602001807f4e6f74207265676973746572656420617320616e206f7261636c65000000000081525060200191505060405180910390fd5b600360003373ffffffffffffffffffffffffffffffffffffffff1673ffffffffffffffffffffffffffffffffffffffff168152602001908152602001600020600101600380602002604051908101604052809291908260038015611794576020028201916000905b82829054906101000a900460ff1660ff168152602001906001019060208260000104928301926001038202915080841161175d5790505b5050505050905090565b670de0b6b3a764000081565b60006060600260009054906101000a900473ffffffffffffffffffffffffffffffffffffffff1673ffffffffffffffffffffffffffffffffffffffff1663010c5c97336040518263ffffffff167c0100000000000000000000000000000000000000000000000000000000028152600401808273ffffffffffffffffffffffffffffffffffffffff1673ffffffffffffffffffffffffffffffffffffffff168152602001915050602060405180830381600087803b15801561186b57600080fd5b505af115801561187f573d6000803e3d6000fd5b505050506040513d602081101561189557600080fd5b810190808051906020019092919050505091506001151582151514151561194a576040517f08c379a00000000000000000000000000000000000000000000000000000000081526004018080602001828103825260218152602001807f6d73672e73656e646572206e6f742072656769737465726564206169726c696e81526020017f650000000000000000000000000000000000000000000000000000000000000081525060400191505060405180910390fd5b678ac7230489e80000341415156119ef576040517f08c379a000000000000000000000000000000000000000000000000000000000815260040180806020018281038252602d8152602001807f53656e6420313020657468657220746f2074686520636f6e747261637420746f81526020017f2067657420617070726f7665640000000000000000000000000000000000000081525060400191505060405180910390fd5b600260009054906101000a900473ffffffffffffffffffffffffffffffffffffffff1673ffffffffffffffffffffffffffffffffffffffff1663419ca9af34336040518363ffffffff167c0100000000000000000000000000000000000000000000000000000000028152600401808273ffffffffffffffffffffffffffffffffffffffff1673ffffffffffffffffffffffffffffffffffffffff1681526020019150506000604051808303818588803b158015611aac57600080fd5b505af1158015611ac0573d6000803e3d6000fd5b5050505050600260009054906101000a900473ffffffffffffffffffffffffffffffffffffffff1673ffffffffffffffffffffffffffffffffffffffff1663524b6100336040518263ffffffff167c0100000000000000000000000000000000000000000000000000000000028152600401808273ffffffffffffffffffffffffffffffffffffffff1673ffffffffffffffffffffffffffffffffffffffff168152602001915050600060405180830381600087803b158015611b8257600080fd5b505af1158015611b96573d6000803e3d6000fd5b505050506040513d6000823e3d601f19601f820116820180604052506020811015611bc057600080fd5b810190808051640100000000811115611bd857600080fd5b82810190506020810184811115611bee57600080fd5b8151856001820283011164010000000082111715611c0b57600080fd5b505092919050505090507fd82bbf95a0582ced2a3000b194533474f4b549f3d126dc78ae11b83a275c3442816040518080602001828103825283818151815260200191508051906020019080838360005b83811015611c77578082015181840152602081019050611c5c565b50505050905090810190601f168015611ca45780820380516001836020036101000a031916815260200191505b509250505060405180910390a15050565b60008660ff16600360003373ffffffffffffffffffffffffffffffffffffffff1673ffffffffffffffffffffffffffffffffffffffff1681526020019081526020016000206001016000600381101515611d0b57fe5b602091828204019190069054906101000a900460ff1660ff161480611d9a57508660ff16600360003373ffffffffffffffffffffffffffffffffffffffff1673ffffffffffffffffffffffffffffffffffffffff1681526020019081526020016000206001016001600381101515611d7f57fe5b602091828204019190069054906101000a900460ff1660ff16145b80611e0f57508660ff16600360003373ffffffffffffffffffffffffffffffffffffffff1673ffffffffffffffffffffffffffffffffffffffff1681526020019081526020016000206001016002600381101515611df457fe5b602091828204019190069054906101000a900460ff1660ff16145b1515611ea9576040517f08c379a00000000000000000000000000000000000000000000000000000000081526004018080602001828103825260238152602001807f496e64657820646f6573206e6f74206d61746368206f7261636c65207265717581526020017f657374000000000000000000000000000000000000000000000000000000000081525060400191505060405180910390fd5b8686868686604051602001808660ff1660ff167f01000000000000000000000000000000000000000000000000000000000000000281526001018573ffffffffffffffffffffffffffffffffffffffff1673ffffffffffffffffffffffffffffffffffffffff166c010000000000000000000000000281526014018484808284378201915050828152602001955050505050506040516020818303038152906040526040518082805190602001908083835b602083101515611f805780518252602082019150602081019050602083039250611f5b565b6001836020036101000a0380198251168184511680821785525050505050509050019150506040518091039020905060046000826000191660001916815260200190815260200160002060000160149054906101000a900460ff16151561209b576040517f08c379a00000000000000000000000000000000000000000000000000000000081526004018080602001828103825260538152602001807f466c69676874206f722074696d657374616d7020646f206e6f74206d6174636881526020017f206f7261636c652072657175657374202d204f72204f726163656c205265717581526020017f65737420686173206265656e20636c6f7365640000000000000000000000000081525060600191505060405180910390fd5b60046000826000191660001916815260200190815260200160002060010160008360ff1660ff1681526020019081526020016000203390806001815401808255809150509060018203906000526020600020016000909192909190916101000a81548173ffffffffffffffffffffffffffffffffffffffff021916908373ffffffffffffffffffffffffffffffffffffffff160217905550507f43c853095c2752648493c88b4baac4d580d2594ffb00c6f1d4242d844514f7838686868686604051808673ffffffffffffffffffffffffffffffffffffffff1673ffffffffffffffffffffffffffffffffffffffff168152602001806020018481526020018360ff1660ff16815260200182810382528686828181526020019250808284378201915050965050505050505060405180910390a160008260ff1614806121e45750600a8260ff16145b806121f2575060148260ff16145b806122005750601e8260ff16145b8061220e575060288260ff16145b8061221c575060328260ff16145b15156122b6576040517f08c379a00000000000000000000000000000000000000000000000000000000081526004018080602001828103825260278152602001807f496e76616c69642053746174757320436f6465205375626d697474656420627981526020017f204f7261636c650000000000000000000000000000000000000000000000000081525060400191505060405180910390fd5b600360046000836000191660001916815260200190815260200160002060010160008460ff1660ff1681526020019081526020016000208054905010151561240957600060046000836000191660001916815260200190815260200160002060000160146101000a81548160ff0219169083151502179055507fe23f5229de535c091e3b7bec2665f5d698192d3b31393066e8987b7a05076b6c8686868686604051808673ffffffffffffffffffffffffffffffffffffffff1673ffffffffffffffffffffffffffffffffffffffff168152602001806020018481526020018360ff1660ff16815260200182810382528686828181526020019250808284378201915050965050505050505060405180910390a16124088686868080601f0160208091040260200160405190810160405280939291908181526020018383808284378201915050505050508585613512565b5b50505050505050565b6000600260009054906101000a900473ffffffffffffffffffffffffffffffffffffffff1673ffffffffffffffffffffffffffffffffffffffff1663cd905dff6040518163ffffffff167c0100000000000000000000000000000000000000000000000000000000028152600401602060405180830381600087803b15801561249a57600080fd5b505af11580156124ae573d6000803e3d6000fd5b505050506040513d60208110156124c457600080fd5b8101908080519060200190929190505050905090565b6000806000806000806000600260009054906101000a900473ffffffffffffffffffffffffffffffffffffffff1673ffffffffffffffffffffffffffffffffffffffff1663f3f55bd76040518163ffffffff167c0100000000000000000000000000000000000000000000000000000000028152600401602060405180830381600087803b15801561256b57600080fd5b505af115801561257f573d6000803e3d6000fd5b505050506040513d602081101561259557600080fd5b81019080805190602001909291905050509650600487101561293057600260009054906101000a900473ffffffffffffffffffffffffffffffffffffffff1673ffffffffffffffffffffffffffffffffffffffff1663010c5c97336040518263ffffffff167c0100000000000000000000000000000000000000000000000000000000028152600401808273ffffffffffffffffffffffffffffffffffffffff1673ffffffffffffffffffffffffffffffffffffffff168152602001915050602060405180830381600087803b15801561266e57600080fd5b505af1158015612682573d6000803e3d6000fd5b505050506040513d602081101561269857600080fd5b810190808051906020019092919050505095506001151586151514151561274d576040517f08c379a00000000000000000000000000000000000000000000000000000000081526004018080602001828103825260218152602001807f6d73672e73656e646572206e6f742072656769737465726564206169726c696e81526020017f650000000000000000000000000000000000000000000000000000000000000081525060400191505060405180910390fd5b600260009054906101000a900473ffffffffffffffffffffffffffffffffffffffff1673ffffffffffffffffffffffffffffffffffffffff1663ee38a7498a8a6040518363ffffffff167c0100000000000000000000000000000000000000000000000000000000028152600401808373ffffffffffffffffffffffffffffffffffffffff1673ffffffffffffffffffffffffffffffffffffffff16815260200180602001828103825283818151815260200191508051906020019080838360005b8381101561282a57808201518184015260208101905061280f565b50505050905090810190601f1680156128575780820380516001836020036101000a031916815260200191505b509350505050600060405180830381600087803b15801561287757600080fd5b505af115801561288b573d6000803e3d6000fd5b505050507f8b5990d705f635a0482a4e48116f8fb0b728d90317aa3db1ec664a951f432ece886040518080602001828103825283818151815260200191508051906020019080838360005b838110156128f15780820151818401526020810190506128d6565b50505050905090810190601f16801561291e5780820380516001836020036101000a031916815260200191505b509250505060405180910390a1612eca565b600260009054906101000a900473ffffffffffffffffffffffffffffffffffffffff1673ffffffffffffffffffffffffffffffffffffffff1663010c5c97336040518263ffffffff167c0100000000000000000000000000000000000000000000000000000000028152600401808273ffffffffffffffffffffffffffffffffffffffff1673ffffffffffffffffffffffffffffffffffffffff168152602001915050602060405180830381600087803b1580156129ed57600080fd5b505af1158015612a01573d6000803e3d6000fd5b505050506040513d6020811015612a1757600080fd5b8101908080519060200190929190505050945060011515851515141515612acc576040517f08c379a00000000000000000000000000000000000000000000000000000000081526004018080602001828103825260218152602001807f6d73672e73656e646572206e6f742072656769737465726564206169726c696e81526020017f650000000000000000000000000000000000000000000000000000000000000081525060400191505060405180910390fd5b6000935060006001805490501115612b7457600092505b600180549050831015612b73573373ffffffffffffffffffffffffffffffffffffffff16600184815481101515612b1657fe5b9060005260206000200160009054906101000a900473ffffffffffffffffffffffffffffffffffffffff1673ffffffffffffffffffffffffffffffffffffffff161415612b665760019350612b73565b8280600101935050612ae3565b5b60001515841515141515612c16576040517f08c379a000000000000000000000000000000000000000000000000000000000815260040180806020018281038252603b8152602001807f4169726c696e652068617320616c72656164792063616c6c656420746869732081526020017f66756e6374696f6e20746f20616464206e6577206169726c696e65000000000081525060400191505060405180910390fd5b60013390806001815401808255809150509060018203906000526020600020016000909192909190916101000a81548173ffffffffffffffffffffffffffffffffffffffff021916908373ffffffffffffffffffffffffffffffffffffffff160217905550506001805490509150612c98600283613c0f90919063ffffffff16565b90508681101515612ec957600260009054906101000a900473ffffffffffffffffffffffffffffffffffffffff1673ffffffffffffffffffffffffffffffffffffffff1663ee38a7498a8a6040518363ffffffff167c0100000000000000000000000000000000000000000000000000000000028152600401808373ffffffffffffffffffffffffffffffffffffffff1673ffffffffffffffffffffffffffffffffffffffff16815260200180602001828103825283818151815260200191508051906020019080838360005b83811015612d80578082015181840152602081019050612d65565b50505050905090810190601f168015612dad5780820380516001836020036101000a031916815260200191505b509350505050600060405180830381600087803b158015612dcd57600080fd5b505af1158015612de1573d6000803e3d6000fd5b505050507f8b5990d705f635a0482a4e48116f8fb0b728d90317aa3db1ec664a951f432ece886040518080602001828103825283818151815260200191508051906020019080838360005b83811015612e47578082015181840152602081019050612e2c565b50505050905090810190601f168015612e745780820380516001836020036101000a031916815260200191505b509250505060405180910390a16000604051908082528060200260200182016040528015612eb15781602001602082028038833980820191505090505b5060019080519060200190612ec7929190613e66565b505b5b505050505050505050565b600080600080868689876040516020018085858082843782019150508373ffffffffffffffffffffffffffffffffffffffff1673ffffffffffffffffffffffffffffffffffffffff166c010000000000000000000000000281526014018281526020019450505050506040516020818303038152906040526040518082805190602001908083835b602083101515612f825780518252602082019150602081019050602083039250612f5d565b6001836020036101000a03801982511681845116808217855250505050505090500191505060405180910390209350600260009054906101000a900473ffffffffffffffffffffffffffffffffffffffff1673ffffffffffffffffffffffffffffffffffffffff166358ac36a3856040518263ffffffff167c0100000000000000000000000000000000000000000000000000000000028152600401808260001916600019168152602001915050602060405180830381600087803b15801561304a57600080fd5b505af115801561305e573d6000803e3d6000fd5b505050506040513d602081101561307457600080fd5b8101908080519060200190929190505050925060011515831515141515613103576040517f08c379a00000000000000000000000000000000000000000000000000000000081526004018080602001828103825260158152602001807f466c69676874206e6f742052656769737465726564000000000000000000000081525060200191505060405180910390fd5b61310c33613c47565b91508188888888604051602001808660ff1660ff167f01000000000000000000000000000000000000000000000000000000000000000281526001018573ffffffffffffffffffffffffffffffffffffffff1673ffffffffffffffffffffffffffffffffffffffff166c010000000000000000000000000281526014018484808284378201915050828152602001955050505050506040516020818303038152906040526040518082805190602001908083835b6020831015156131e557805182526020820191506020810190506020830392506131c0565b6001836020036101000a0380198251168184511680821785525050505050509050019150506040518091039020905060408051908101604052803373ffffffffffffffffffffffffffffffffffffffff1681526020016001151581525060046000836000191660001916815260200190815260200160002060008201518160000160006101000a81548173ffffffffffffffffffffffffffffffffffffffff021916908373ffffffffffffffffffffffffffffffffffffffff16021790555060208201518160000160146101000a81548160ff0219169083151502179055509050507f3ed01f2c3fc24c6b329d931e35b03e390d23497d22b3f90e15b600343e93df118289898989604051808660ff1660ff1681526020018573ffffffffffffffffffffffffffffffffffffffff1673ffffffffffffffffffffffffffffffffffffffff1681526020018060200183815260200182810382528585828181526020019250808284378201915050965050505050505060405180910390a15050505050505050565b613374613da9565b61337c613da9565b61338583613c47565b81600060038110151561339457fe5b602002019060ff16908160ff16815250508060006003811015156133b457fe5b60200201518160016003811015156133c857fe5b602002019060ff16908160ff16815250505b8060006003811015156133e957fe5b602002015160ff1681600160038110151561340057fe5b602002015160ff16141561343c5761341783613c47565b81600160038110151561342657fe5b602002019060ff16908160ff16815250506133da565b80600160038110151561344b57fe5b602002015181600260038110151561345f57fe5b602002019060ff16908160ff16815250505b80600060038110151561348057fe5b602002015160ff1681600260038110151561349757fe5b602002015160ff1614806134d657508060016003811015156134b557fe5b602002015160ff168160026003811015156134cc57fe5b602002015160ff16145b15613509576134e483613c47565b8160026003811015156134f357fe5b602002019060ff16908160ff1681525050613471565b80915050919050565b60606000808360ff1614156136be57608060405190810160405280605081526020017f537461747573436f6465203d20302c20466c696768742073746174757320756e81526020017f6b6e6f776e2c206e6f20696e737572616e6365207061796d656e7473206d616481526020017f652c20436865636b696e204c617465720000000000000000000000000000000081525091507fc3014ef768636023380f53ec52469ef99fe4208f7c1780da652b7cefe968d68c82848760405180806020018460ff1660ff16815260200180602001838103835286818151815260200191508051906020019080838360005b8381101561361a5780820151818401526020810190506135ff565b50505050905090810190601f1680156136475780820380516001836020036101000a031916815260200191505b50838103825284818151815260200191508051906020019080838360005b83811015613680578082015181840152602081019050613665565b50505050905090810190601f1680156136ad5780820380516001836020036101000a031916815260200191505b509550505050505060405180910390a15b600a8360ff16141561384157606060405190810160405280603e81526020017f537461747573436f6465203d2031302c20466c69676874206973206f6e20746981526020017f6d652c206e6f20696e737572616e6365207061796d656e7473206d616465000081525091507fc3014ef768636023380f53ec52469ef99fe4208f7c1780da652b7cefe968d68c82848760405180806020018460ff1660ff16815260200180602001838103835286818151815260200191508051906020019080838360005b8381101561379d578082015181840152602081019050613782565b50505050905090810190601f1680156137ca5780820380516001836020036101000a031916815260200191505b50838103825284818151815260200191508051906020019080838360005b838110156138035780820151818401526020810190506137e8565b50505050905090810190601f1680156138305780820380516001836020036101000a031916815260200191505b509550505050505060405180910390a15b60148360ff1614806138565750601e8360ff16145b80613864575060288360ff16145b80613872575060328360ff16145b15613c07578486856040516020018084805190602001908083835b6020831015156138b2578051825260208201915060208101905060208303925061388d565b6001836020036101000a0380198251168184511680821785525050505050509050018373ffffffffffffffffffffffffffffffffffffffff1673ffffffffffffffffffffffffffffffffffffffff166c0100000000000000000000000002815260140182815260200193505050506040516020818303038152906040526040518082805190602001908083835b602083101515613964578051825260208201915060208101905060208303925061393f565b6001836020036101000a03801982511681845116808217855250505050505090500191505060405180910390209050600260009054906101000a900473ffffffffffffffffffffffffffffffffffffffff1673ffffffffffffffffffffffffffffffffffffffff1663598512a3826040518263ffffffff167c0100000000000000000000000000000000000000000000000000000000028152600401808260001916600019168152602001915050600060405180830381600087803b158015613a2c57600080fd5b505af1158015613a40573d6000803e3d6000fd5b5050505060a060405190810160405280607281526020017f537461747573436f6465203d203230206f72203330206f72203430206f72203581526020017f302c20466c69676874206973206c6174652c20416c6c2070617373656e67657281526020017f7320656c696769626c65207765726520706169642d2050617373656e6765722081526020017f63616e2077697468647261772066756e6473000000000000000000000000000081525091507fc3014ef768636023380f53ec52469ef99fe4208f7c1780da652b7cefe968d68c82848760405180806020018460ff1660ff16815260200180602001838103835286818151815260200191508051906020019080838360005b83811015613b63578082015181840152602081019050613b48565b50505050905090810190601f168015613b905780820380516001836020036101000a031916815260200191505b50838103825284818151815260200191508051906020019080838360005b83811015613bc9578082015181840152602081019050613bae565b50505050905090810190601f168015613bf65780820380516001836020036101000a031916815260200191505b509550505050505060405180910390a15b505050505050565b600080831415613c225760009050613c41565b8183029050818382811515613c3357fe5b04141515613c3d57fe5b8090505b92915050565b6000806000600a91508160ff166002601481819054906101000a900460ff168092919060010191906101000a81548160ff021916908360ff16021790555060ff16430340856040516020018083600019166000191681526020018273ffffffffffffffffffffffffffffffffffffffff1673ffffffffffffffffffffffffffffffffffffffff166c01000000000000000000000000028152601401925050506040516020818303038152906040526040518082805190602001908083835b602083101515613d2a5780518252602082019150602081019050602083039250613d05565b6001836020036101000a038019825116818451168082178552505050505050905001915050604051809103902060019004811515613d6457fe5b06905060fa600260149054906101000a900460ff1660ff161115613d9f576000600260146101000a81548160ff021916908360ff1602179055505b8092505050919050565b606060405190810160405280600390602082028038833980820191505090505090565b826003601f01602090048101928215613e555791602002820160005b83821115613e2657835183826101000a81548160ff021916908360ff1602179055509260200192600101602081600001049283019260010302613de8565b8015613e535782816101000a81549060ff0219169055600101602081600001049283019260010302613e26565b505b509050613e629190613ef0565b5090565b828054828255906000526020600020908101928215613edf579160200282015b82811115613ede5782518260006101000a81548173ffffffffffffffffffffffffffffffffffffffff021916908373ffffffffffffffffffffffffffffffffffffffff16021790555091602001919060010190613e86565b5b509050613eec9190613f20565b5090565b613f1d91905b80821115613f1957600081816101000a81549060ff021916905550600101613ef6565b5090565b90565b613f6091905b80821115613f5c57600081816101000a81549073ffffffffffffffffffffffffffffffffffffffff021916905550600101613f26565b5090565b905600a165627a7a72305820077483a9a2a615100f328679dba98059e9c97fcf5209a75e21544589949255d20029",
  "source": "pragma solidity ^0.4.24;\n\n// It's important to avoid vulnerabilities due to numeric overflow bugs\n// OpenZeppelin's SafeMath library, when used correctly, protects agains such bugs\n// More info: https://www.nccgroup.trust/us/about-us/newsroom-and-events/blog/2018/november/smart-contract-insecurity-bad-arithmetic/\n\nimport \"../node_modules/openzeppelin-solidity/contracts/math/SafeMath.sol\";\n\n/************************************************** */\n/* FlightSurety Smart Contract                      */\n/************************************************** */\ncontract FlightSuretyApp {\n    using SafeMath for uint256; // Allow SafeMath functions to be called for all uint256 types (similar to \"prototype\" in Javascript)\n\n    /********************************************************************************************/\n    /*                                       DATA VARIABLES                                     */\n    /********************************************************************************************/\n\n    // Flight status codees\n    uint8 private constant STATUS_CODE_UNKNOWN = 0;\n    uint8 private constant STATUS_CODE_ON_TIME = 10;\n    uint8 private constant STATUS_CODE_LATE_AIRLINE = 20;\n    uint8 private constant STATUS_CODE_LATE_WEATHER = 30;\n    uint8 private constant STATUS_CODE_LATE_TECHNICAL = 40;\n    uint8 private constant STATUS_CODE_LATE_OTHER = 50;\n\n    address private contractOwner;          // Account used to deploy contract\n\n    // Variable for multi party consensus to add new airlines to the registered airlines\n    // multiCalls[] array will store the addresses of the already registered airlines which voted to add the new airline\n    address[] multiCalls = new address[](0);\n\n    //RG: removed the struct Flight and mapping flights to Data contract from the starter code\n\n    //RG: create a variable to store reference to the data contract from app contract\n    FlightSuretyData flightSuretyData;\n\n     /********************************************************************************************/\n    /*                                       EVENT DEFINITIONS                                  */\n    /********************************************************************************************/\n   \n    /**\n    * @dev event emitted when a new airline is registered \n    */\n    event Registered(string airlineName);\n\n    /**\n    * @dev event emitted when a new flight is registered \n    */\n    event RegisteredFlight(string flight);\n    \n    // Event emitted when a registered airline is approved after paying 10 ether\n    event Approved(string airlineName);\n\n    // Event emitted once a passenger successfully buys insurance for a flight\n    event PassengerInsured(bytes32 passengerKey, address passengerAddress);\n\n    // Event emitted once a passenger successfully withdraws money credit to their account\n    event CreditWithdrawal(address passengerAddress);\n\n \n    /********************************************************************************************/\n    /*                                       FUNCTION MODIFIERS                                 */\n    /********************************************************************************************/\n\n    // Modifiers help avoid duplication of code. They are typically used to validate something\n    // before a function is allowed to be executed.\n\n    /**\n    * @dev Modifier that requires the \"operational\" boolean variable to be \"true\"\n    *      This is used on all state changing functions to pause the contract in \n    *      the event there is an issue that needs to be fixed\n    */\n    /*\n    modifier requireIsOperational() \n    {\n         // Modify to call data contract's status\n         //RG: calling the data contract funciton to check if the contract is active or paused\n        bool status = flightSuretyData.isOperational();\n        require(status == true,\"Contract is currently not operational\");  \n        _;  // All modifiers require an \"_\" which indicates where the function body will be added\n    }\n    */\n\n    /**\n    * @dev Modifier that requires the \"ContractOwner\" account to be the function caller\n    */\n    modifier requireContractOwner()\n    {\n        require(msg.sender == contractOwner, \"Caller is not contract owner\");\n        _;\n    }\n\n    /********************************************************************************************/\n    /*                                       CONSTRUCTOR                                        */\n    /********************************************************************************************/\n\n    /**\n    * @dev Contract constructor\n    *\n    */\n    constructor\n                                (address dataContractAddress\n                                ) \n                                public \n    {\n        contractOwner = msg.sender;\n        //RG: create an instance of the data contract using the address of the data contract sent when deploying this contract\n        flightSuretyData = FlightSuretyData(dataContractAddress);\n    }\n\n    /********************************************************************************************/\n    /*                                       UTILITY FUNCTIONS                                  */\n    /********************************************************************************************/\n\n    function isOperational() \n                            public \n                            view \n                            returns(bool) \n    {\n        //RG: calling the data contract function to check if the contract is paused or active\n        return flightSuretyData.isOperational();  // Modify to call data contract's status\n    }\n\n    /********************************************************************************************/\n    /*                                     SMART CONTRACT FUNCTIONS                             */\n    /********************************************************************************************/\n\n\n   /**\n    * @dev Add an airline to the registration queue\n    *\n    */   \n    function registerAirline\n                            (address airlineAddress, \n                            string memory airlineName\n                            )\n                            public\n    {\n        uint256 counter = flightSuretyData.airlineCounter();\n        // Verify if the number of airlines registered is less than 5\n        if(counter < 4) {\n            // verify if the msg.sender registering the new airline is already a registered airline\n            bool isRegistered = flightSuretyData.isAirlineRegistered(msg.sender);\n            require(isRegistered == true, \"msg.sender not registered airline\");\n            flightSuretyData.registerAirline(airlineAddress, airlineName);\n            emit Registered(airlineName);\n        }\n        // Implement the multiparty consensus in the else loop once first 4 airlines are registered\n        else { \n            // verify if the msg.sender registering the new airline is already a registered airline\n            bool isRegistered1 = flightSuretyData.isAirlineRegistered(msg.sender);\n            require(isRegistered1 == true, \"msg.sender not registered airline\");\n            \n            // boolean flag to track if msg.sender is voting multiple times\n            bool isDuplicate = false;\n            // Check if msg.sender has already voted to register the new airline\n            if(multiCalls.length > 0) {\n                for(uint c=0; c<multiCalls.length; c++) {\n                    if(multiCalls[c] == msg.sender){\n                        // msg.sender already voted. This transaction is a duplcicate vote abort this function\n                        isDuplicate = true;\n                        break;\n                    }\n                }\n            }\n            \n            // If for loop above confirmed voting duplicacy then abort this function by the require statement below\n            require(isDuplicate == false,\"Airline has already called this function to add new airline\");\n            multiCalls.push(msg.sender);\n            uint256 arrayLength = multiCalls.length;\n            uint256 twiceLength = arrayLength.mul(2);\n            // consensus check to see if the new airline received enough votes\n            // Need more than half of the registered airlines to vote for this new airline\n            if(twiceLength >= counter) {\n               flightSuretyData.registerAirline(airlineAddress, airlineName); \n               emit Registered(airlineName);\n               multiCalls = new address[](0);\n            }\n        }\n\n    }\n\n   /**\n    * @dev Function for a registered airline to call to send 10 ether.\n    * Once 10 ether is sent, the airline will be approved to participate in the insurance program\n    *\n    */  \n    function approveAirline() external payable {\n        // Check if the msg.sender is a registered airline\n        bool isRegistered = flightSuretyData.isAirlineRegistered(msg.sender);\n        require(isRegistered == true, \"msg.sender not registered airline\");\n        // Check if airlines sent 10 ether to register\n        require(msg.value == 10 ether,\"Send 10 ether to the contract to get approved\");\n        flightSuretyData.approveAirline.value(msg.value)(msg.sender);\n        string memory airlineName = flightSuretyData.getAirlineName(msg.sender);\n        emit Approved(airlineName);\n    }\n\n//function getBalance(): Getter function to retrieve value stored in this app contract\n// Helper function to test the code \n\n    function getBalance() external view returns(uint256) {\n       return address(this).balance;\n    }\n\n\n   /**\n    * @dev Register a future flight for insuring.\n    *\n    */  \n    function registerFlight(string memory flight, address airline, uint256 timestamp)\n                                public\n    {\n        // verify if the address airline registering the new flight is already an approved airline\n            bool isApproved = flightSuretyData.isAirlineApproved(airline);\n            require(isApproved == true, \"Airline is not approved to participate in insurance pool\");\n            flightSuretyData.registerFlight(flight, airline, timestamp);\n            emit RegisteredFlight(flight);\n    }\n\n/**\n* @dev passenger can buy insurance for a flight \n* Max 1 ether can be sent by the passenger to buy insurance\n* Check if the flight is registered first\n* Check if passenger already bought the same flight insurance before\n* Call data app function to buy the insurance and store the data\n */\n    function buyFlightInsurance(string memory flight, address airline, uint256 timestamp) public payable {\n        require(msg.value <= 1 ether, 'Send maximum of 1 ether to buy insurance');\n        \n        bytes32 flightKey = keccak256(abi.encodePacked(flight, airline, timestamp));\n        bool flightRegistered = flightSuretyData.isFlightRegistered(flightKey);\n        require(flightRegistered == true, \"Flight not Registered so cannot be insured\");\n\n        // passengerKey is a hash of flight information and passenger address\n        bytes32 passengerKey = keccak256(abi.encodePacked(flight, airline, timestamp, msg.sender));\n        bool insuranceStatus = flightSuretyData.isPassengerInsured(passengerKey);\n        require(insuranceStatus == false, \"Passenger already bought insurance for this flight. Cannot buy twice\");\n\n        flightSuretyData.buyFlightInsurance.value(msg.value)(flightKey, passengerKey, msg.sender);\n        emit PassengerInsured(passengerKey, msg.sender);\n\n    }\n\n/**\n* @dev passenger can withdraw insurance payment credited to passenger account\n* Call data app passengerCreditWithdraw() function to send funds to passenger (=msg.sender)\n */\n\n    function passengerCreditWithdraw(string memory flight, address airline, uint256 timestamp) public payable {\n        uint256 balance = flightSuretyData.getInsurancePaymentInfo(flight, airline, timestamp, msg.sender);\n        require(balance > 0, 'Passenger has no insurance payment credit outstanding');\n        bytes32 passengerKey = keccak256(abi.encodePacked(flight, airline, timestamp, msg.sender));\n        flightSuretyData.passengerCreditWithdraw(passengerKey, msg.sender);\n        emit CreditWithdrawal(msg.sender);\n\n    }\n\n\n// ORACLE ALGORITHM FUNCTIONS FOLLOW BELOW\n\n   /**\n    * @dev Called after oracle has updated flight status\n    *\n    */  \n    // Once the flight status is received, take appropriate action of paying out insurance money\n    // if flight was delayed.\n    function processFlightStatus(address airline, string memory flight, uint256 timestamp, uint8 statusCode)\n                                internal\n    {\n        string memory result;\n        if(statusCode == 0) {\n            result = 'StatusCode = 0, Flight status unknown, no insurance payments made, Checkin Later';\n            emit FlightStatusResult(result, statusCode, flight);\n        }\n\n        if(statusCode == 10) {\n            result = 'StatusCode = 10, Flight is on time, no insurance payments made';\n            emit FlightStatusResult(result, statusCode, flight);\n        }\n\n        if(statusCode == 20 || statusCode == 30 || statusCode == 40 || statusCode == 50) {\n            \n            // pay all passengers who insured by crediting their addresses with the amount they are owed\n            bytes32 flightKey = keccak256(abi.encodePacked(flight, airline, timestamp));\n            flightSuretyData.payInsurance(flightKey);\n            result = 'StatusCode = 20 or 30 or 40 or 50, Flight is late, All passengers eligible were paid- Passenger can withdraw funds';\n            emit FlightStatusResult(result, statusCode, flight);\n        }\n        \n    }\n\n\n    // Generate a request for oracles to fetch flight information\n    function fetchFlightStatus(address airline, string flight, uint256 timestamp) external \n    {\n        bytes32 flightKey = keccak256(abi.encodePacked(flight, airline, timestamp));\n        bool flightRegistered = flightSuretyData.isFlightRegistered(flightKey);\n        require(flightRegistered == true, \"Flight not Registered\");\n\n        uint8 index = getRandomIndex(msg.sender); //Get a random number between 0 to 9 with seed of msg.sender and other numbers\n\n        // Generate a unique key (hash) for storing the flight status request\n        bytes32 key = keccak256(abi.encodePacked(index, airline, flight, timestamp));\n        // Store this current flight status check request into the data base as a Struct of ResponseInfo.\n        // This is stored via mapping using key = hash generated above and mapped to ResponseInfo\n        // Response Info stores the address of the person sending the status update request and \n        // initially assigns a status open = true indicating that the flight status information has\n        // not been received by the App contract from Oracles yet\n        oracleResponses[key] = ResponseInfo({\n                                                requester: msg.sender,\n                                                isOpen: true\n                                            });\n\n    // The index is a random number generated between 0 to 9. Oracles have 3 (0 to 9) random numbers\n    // assigned when they registered. Only Oracles with matching indexes are allowed to provide \n    // flight status information. This is done to provide randomness in the Oracle submission so that\n    // Oracles cannot collude easily I think??\n    \n    // Emit a event with the random index value and flight information. I think the server which simulates\n    // the oracles will be listening to see if this event is emitted. \n        emit OracleRequest(index, airline, flight, timestamp);\n    } \n\n\n// region ORACLE MANAGEMENT\n\n    // Incremented to add pseudo-randomness at various points\n    uint8 private nonce = 0;    \n\n    // Fee to be paid when registering oracle\n    uint256 public constant REGISTRATION_FEE = 1 ether;\n\n    // Number of oracles that must respond for valid status\n    uint256 private constant MIN_RESPONSES = 3;\n\n\n    struct Oracle {\n        bool isRegistered;\n        uint8[3] indexes; //Each Oracle registered has an array of three random integers between\n                          // 0 to 9. Each element of array is non-duplicating.\n                          // This array is generated when an Oracle registers \n    }\n\n    // Track all registered oracles\n    mapping(address => Oracle) private oracles;\n\n    // Model for responses from oracles\n    // The responses mapping is a mapping from the uint8 which will be the status code of the flight\n    // This is mapped to an array of address. So all the Oracles addresses which respond with a \n    // particular status code are stored into this array. This can be used to group the \n    // addresses by the Status Code. So all the addresses which provided the same status code are \n    // stored into this mapping\n    struct ResponseInfo {\n        address requester;                              // Account that requested status\n        bool isOpen;                                    // If open, oracle responses are accepted\n        mapping(uint8 => address[]) responses;          // Mapping key is the status code reported\n                                                        // This lets us group responses and identify\n                                                        // the response that majority of the oracles\n    }\n\n    // Track all oracle responses\n    // Key = hash(index, flight, timestamp)\n    mapping(bytes32 => ResponseInfo) private oracleResponses;\n\n    // Event fired each time an oracle submits a response\n    event FlightStatusInfo(address airline, string flight, uint256 timestamp, uint8 status);\n\n    event OracleReport(address airline, string flight, uint256 timestamp, uint8 status);\n\n    // Event fired when flight status request is submitted\n    // Oracles track this and if they have a matching index\n    // they fetch data and submit a response\n    event OracleRequest(uint8 index, address airline, string flight, uint256 timestamp);\n\n    // Event emitted by process flight to alert the status of flight based on information provided by Oracles\n    event FlightStatusResult(string result, uint8 statusCode, string flight);\n\n\n    // Register an oracle with the contract\n    function registerOracle() external payable\n    {\n        // Require registration fee\n        require(msg.value >= REGISTRATION_FEE, \"Registration fee is required\");\n\n        // generateIndexes returns an array of 3 numbers. These three numbers are non-repeating between 0 to 9\n        uint8[3] memory indexes = generateIndexes(msg.sender);\n\n        oracles[msg.sender] = Oracle({\n                                        isRegistered: true,\n                                        indexes: indexes\n                                    });\n    }\n\n    // Returns the Array \"indexes\" stored by each Oracle. This function has to be called \n    // by a registered Oracle\n    function getMyIndexes() external view returns(uint8[3])\n    {\n        require(oracles[msg.sender].isRegistered, \"Not registered as an oracle\");\n\n        return oracles[msg.sender].indexes;\n    }\n\n\n\n\n    // Called by oracle when a response is available to an outstanding request\n    // For the response to be accepted, there must be a pending request that is open\n    // and matches one of the three Indexes randomly assigned to the oracle at the\n    // time of registration (i.e. uninvited oracles are not welcome)\n    function submitOracleResponse(uint8 index, address airline, string flight, uint256 timestamp, \n                        uint8 statusCode)\n                        external\n    {\n        require((oracles[msg.sender].indexes[0] == index) || (oracles[msg.sender].indexes[1] == index) || (oracles[msg.sender].indexes[2] == index), \"Index does not match oracle request\");\n\n        // The key below was the same Hash generated before in the fetchFlightStatus function just before\n        // a flight status request event was emitted\n        bytes32 key = keccak256(abi.encodePacked(index, airline, flight, timestamp)); \n        require(oracleResponses[key].isOpen, \"Flight or timestamp do not match oracle request - Or Oracel Request has been closed\");\n\n        // address of the Oracle is stored inside the mapping responses. The mapping responses\n        // is an array of addresses located at each Status code returned by the Oracle.\n        oracleResponses[key].responses[statusCode].push(msg.sender);\n\n        // emit the OracleReport event to say that a Oracle response was received for an ongoing open request\n        emit OracleReport(airline, flight, timestamp, statusCode);\n\n        // stop and revert back if statusCode is invalid code. Information is recorded for invalid code\n        // to judge performance of Oracles\n        require(statusCode == 0 || statusCode == 10 || statusCode == 20 || statusCode == 30 ||\n                statusCode == 40 || statusCode == 50, \"Invalid Status Code Submitted by Oracle\");\n\n        // Information isn't considered verified until at least MIN_RESPONSES\n        // oracles respond with the *** same *** information\n        \n        if (oracleResponses[key].responses[statusCode].length >= MIN_RESPONSES) {\n            // Change the flag in the oracleResponses to stop accepting oracle responses since\n            // the required number of responses to make a decision on flight status were received\n            oracleResponses[key].isOpen = false;\n            // The event FlightStatusInfo signals that Flight Status information requested was \n            // obtained for that particular flight and the statuscode of whether the flight was delayed or\n            // not is emitted out along with the flight information\n            \n            emit FlightStatusInfo(airline, flight, timestamp, statusCode);\n\n            // Handle flight status as appropriate\n            // I need to write the code for this function once the flight status is obtained\n            // In this function we check if flight was delayed or not and if delayed we payout the insurance\n            // to passenger who insured\n            processFlightStatus(airline, flight, timestamp, statusCode);\n        }\n    }\n\n\n    function getFlightKey\n                        (\n                            address airline,\n                            string flight,\n                            uint256 timestamp\n                        )\n                        pure\n                        internal\n                        returns(bytes32) \n    {\n        return keccak256(abi.encodePacked(airline, flight, timestamp));\n    }\n\n    // Returns array of three non-duplicating integers from 0-9\n    function generateIndexes(address account) internal returns(uint8[3])\n    {\n        uint8[3] memory indexes;\n        indexes[0] = getRandomIndex(account);\n        \n        indexes[1] = indexes[0];\n        while(indexes[1] == indexes[0]) {\n            indexes[1] = getRandomIndex(account);\n        }\n\n        indexes[2] = indexes[1];\n        while((indexes[2] == indexes[0]) || (indexes[2] == indexes[1])) {\n            indexes[2] = getRandomIndex(account);\n        }\n        return indexes;\n    }\n\n    // Returns a random number between 0 and 9. Using the hash of (blockhash, msg.sender) \n    function getRandomIndex(address account) internal returns (uint8) {\n        uint8 maxValue = 10;\n\n        // Pseudo random number...the incrementing nonce adds variation\n        uint8 random = uint8(uint256(keccak256(abi.encodePacked(blockhash(block.number - nonce++), account))) % maxValue);\n\n        if (nonce > 250) {\n            nonce = 0;  // Can only fetch blockhashes for last 256 blocks so we adapt\n        }\n\n        return random;\n    }\n\n// endregion\n\n}   \n\n//RG: add the syntax for interfacing the data contract into the app contract\ncontract FlightSuretyData {\n    function isOperational() external view returns(bool);\n    function registerAirline(address airlineAddress, string memory airlineName) public;\n    function registerFlight(string memory flight, address airline, uint256 timestamp) public;\n    uint256 public airlineCounter;\n    function isAirlineRegistered(address airline) public view returns(bool);\n    function isAirlineApproved(address airline) public view returns(bool);\n    function approveAirline(address airlineAddress) external payable;\n    function getAirlineName(address airlineAddress) external view returns(string memory airlineName);\n    function isFlightRegistered(bytes32 flightKey) external view returns(bool);\n    function isPassengerInsured(bytes32 passengerKey) external view returns(bool);\n    function buyFlightInsurance(bytes32 flightKey, bytes32 passengerKey, address passengerAdd) external payable;\n    function payInsurance(bytes32 flightKey) external;\n    function passengerCreditWithdraw(bytes32 passengerKey, address passenger) external payable;\n    function getInsurancePaymentInfo(string memory flight, address airline, uint256 timestamp, address passenger) public view returns(uint256);\n\n}\n\n",
  "sourcePath": "/Users/Raj/Documents/Programming/Blockchain_Nano_Degree/term2/flightSurety/FlightSurety/contracts/FlightSuretyApp.sol",
  "compiler": {
    "name": "solc",
    "version": "0.4.26+commit.4563c3fc.Emscripten.clang"
  },
  "schemaVersion": "3.0.9",
  "updatedAt": "2019-10-06T06:12:16.127Z",
  "devdoc": {
    "methods": {
      "approveAirline()": {
        "details": "Function for a registered airline to call to send 10 ether. Once 10 ether is sent, the airline will be approved to participate in the insurance program    "
      },
      "buyFlightInsurance(string,address,uint256)": {
        "details": "passenger can buy insurance for a flight  Max 1 ether can be sent by the passenger to buy insurance Check if the flight is registered first Check if passenger already bought the same flight insurance before Call data app function to buy the insurance and store the data"
      },
      "passengerCreditWithdraw(string,address,uint256)": {
        "details": "passenger can withdraw insurance payment credited to passenger account Call data app passengerCreditWithdraw() function to send funds to passenger (=msg.sender)"
      },
      "registerAirline(address,string)": {
        "details": "Add an airline to the registration queue    "
      },
      "registerFlight(string,address,uint256)": {
        "details": "Register a future flight for insuring.    "
      }
    }
  },
  "userdoc": {
    "methods": {
      "isOperational()": {
        "notice": "*****************************************************************************************"
      }
    }
  }
}