{
  "contractName": "FlightSuretyData",
  "abi": [
    {
      "constant": true,
      "inputs": [],
      "name": "insuranceBalance",
      "outputs": [
        {
          "name": "",
          "type": "uint256"
        }
      ],
      "payable": false,
      "stateMutability": "view",
      "type": "function"
    },
    {
      "constant": true,
      "inputs": [],
      "name": "airlineCounter",
      "outputs": [
        {
          "name": "",
          "type": "uint256"
        }
      ],
      "payable": false,
      "stateMutability": "view",
      "type": "function"
    },
    {
      "inputs": [
        {
          "name": "airlineAddress",
          "type": "address"
        },
        {
          "name": "airlineName",
          "type": "string"
        }
      ],
      "payable": false,
      "stateMutability": "nonpayable",
      "type": "constructor"
    },
    {
      "payable": true,
      "stateMutability": "payable",
      "type": "fallback"
    },
    {
      "anonymous": false,
      "inputs": [
        {
          "indexed": false,
          "name": "passenger",
          "type": "address"
        },
        {
          "indexed": false,
          "name": "result",
          "type": "string"
        }
      ],
      "name": "OutofBalance",
      "type": "event"
    },
    {
      "constant": true,
      "inputs": [],
      "name": "isOperational",
      "outputs": [
        {
          "name": "",
          "type": "bool"
        }
      ],
      "payable": false,
      "stateMutability": "view",
      "type": "function"
    },
    {
      "constant": false,
      "inputs": [
        {
          "name": "mode",
          "type": "bool"
        }
      ],
      "name": "setOperatingStatus",
      "outputs": [],
      "payable": false,
      "stateMutability": "nonpayable",
      "type": "function"
    },
    {
      "constant": false,
      "inputs": [
        {
          "name": "authorizedAddress",
          "type": "address"
        }
      ],
      "name": "authorizeContract",
      "outputs": [],
      "payable": false,
      "stateMutability": "nonpayable",
      "type": "function"
    },
    {
      "constant": false,
      "inputs": [
        {
          "name": "authorizedAddress",
          "type": "address"
        }
      ],
      "name": "deAuthorizeContract",
      "outputs": [],
      "payable": false,
      "stateMutability": "nonpayable",
      "type": "function"
    },
    {
      "constant": true,
      "inputs": [
        {
          "name": "contractAddress",
          "type": "address"
        }
      ],
      "name": "isAuthorizedContract",
      "outputs": [
        {
          "name": "",
          "type": "uint256"
        }
      ],
      "payable": false,
      "stateMutability": "view",
      "type": "function"
    },
    {
      "constant": false,
      "inputs": [
        {
          "name": "airlineAddress",
          "type": "address"
        },
        {
          "name": "airlineName",
          "type": "string"
        }
      ],
      "name": "registerAirline",
      "outputs": [],
      "payable": false,
      "stateMutability": "nonpayable",
      "type": "function"
    },
    {
      "constant": true,
      "inputs": [
        {
          "name": "airlineAddress",
          "type": "address"
        }
      ],
      "name": "airlineInfoReturn",
      "outputs": [
        {
          "name": "airlineName",
          "type": "string"
        },
        {
          "name": "airlineAddress1",
          "type": "address"
        },
        {
          "name": "isApproved",
          "type": "bool"
        },
        {
          "name": "isFirst",
          "type": "bool"
        },
        {
          "name": "serialNumber",
          "type": "uint256"
        }
      ],
      "payable": false,
      "stateMutability": "view",
      "type": "function"
    },
    {
      "constant": true,
      "inputs": [
        {
          "name": "airlineAddress",
          "type": "address"
        }
      ],
      "name": "getAirlineName",
      "outputs": [
        {
          "name": "airlineName",
          "type": "string"
        }
      ],
      "payable": false,
      "stateMutability": "view",
      "type": "function"
    },
    {
      "constant": true,
      "inputs": [
        {
          "name": "airlineAddress",
          "type": "address"
        }
      ],
      "name": "getAirlineStatus",
      "outputs": [
        {
          "name": "",
          "type": "bool"
        }
      ],
      "payable": false,
      "stateMutability": "view",
      "type": "function"
    },
    {
      "constant": true,
      "inputs": [
        {
          "name": "airline",
          "type": "address"
        }
      ],
      "name": "isAirlineRegistered",
      "outputs": [
        {
          "name": "",
          "type": "bool"
        }
      ],
      "payable": false,
      "stateMutability": "view",
      "type": "function"
    },
    {
      "constant": false,
      "inputs": [
        {
          "name": "airlineAddress",
          "type": "address"
        }
      ],
      "name": "approveAirline",
      "outputs": [],
      "payable": true,
      "stateMutability": "payable",
      "type": "function"
    },
    {
      "constant": true,
      "inputs": [
        {
          "name": "airline",
          "type": "address"
        }
      ],
      "name": "isAirlineApproved",
      "outputs": [
        {
          "name": "",
          "type": "bool"
        }
      ],
      "payable": false,
      "stateMutability": "view",
      "type": "function"
    },
    {
      "constant": true,
      "inputs": [],
      "name": "getInsuranceBalance",
      "outputs": [
        {
          "name": "",
          "type": "uint256"
        }
      ],
      "payable": false,
      "stateMutability": "view",
      "type": "function"
    },
    {
      "constant": false,
      "inputs": [
        {
          "name": "flight",
          "type": "string"
        },
        {
          "name": "airline",
          "type": "address"
        },
        {
          "name": "timestamp",
          "type": "uint256"
        }
      ],
      "name": "registerFlight",
      "outputs": [],
      "payable": false,
      "stateMutability": "nonpayable",
      "type": "function"
    },
    {
      "constant": true,
      "inputs": [
        {
          "name": "flight",
          "type": "string"
        },
        {
          "name": "airline",
          "type": "address"
        },
        {
          "name": "timestamp",
          "type": "uint256"
        }
      ],
      "name": "flightInfoReturn",
      "outputs": [
        {
          "name": "isRegistered",
          "type": "bool"
        },
        {
          "name": "flightName",
          "type": "string"
        },
        {
          "name": "airlineAddress",
          "type": "address"
        },
        {
          "name": "flightTimestamp",
          "type": "uint256"
        },
        {
          "name": "key",
          "type": "bytes32"
        }
      ],
      "payable": false,
      "stateMutability": "view",
      "type": "function"
    },
    {
      "constant": true,
      "inputs": [
        {
          "name": "flightKey",
          "type": "bytes32"
        }
      ],
      "name": "isFlightRegistered",
      "outputs": [
        {
          "name": "",
          "type": "bool"
        }
      ],
      "payable": false,
      "stateMutability": "view",
      "type": "function"
    },
    {
      "constant": true,
      "inputs": [
        {
          "name": "passengerKey",
          "type": "bytes32"
        }
      ],
      "name": "isPassengerInsured",
      "outputs": [
        {
          "name": "",
          "type": "bool"
        }
      ],
      "payable": false,
      "stateMutability": "view",
      "type": "function"
    },
    {
      "constant": false,
      "inputs": [
        {
          "name": "flightKey",
          "type": "bytes32"
        },
        {
          "name": "passengerKey",
          "type": "bytes32"
        },
        {
          "name": "passengerAdd",
          "type": "address"
        }
      ],
      "name": "buyFlightInsurance",
      "outputs": [],
      "payable": true,
      "stateMutability": "payable",
      "type": "function"
    },
    {
      "constant": true,
      "inputs": [
        {
          "name": "flight",
          "type": "string"
        },
        {
          "name": "airline",
          "type": "address"
        },
        {
          "name": "timestamp",
          "type": "uint256"
        }
      ],
      "name": "getPassengerPayment",
      "outputs": [
        {
          "name": "",
          "type": "uint256"
        }
      ],
      "payable": false,
      "stateMutability": "view",
      "type": "function"
    },
    {
      "constant": true,
      "inputs": [],
      "name": "getPassengerKeys",
      "outputs": [
        {
          "name": "",
          "type": "bytes32[]"
        }
      ],
      "payable": false,
      "stateMutability": "view",
      "type": "function"
    },
    {
      "constant": false,
      "inputs": [
        {
          "name": "flightKey",
          "type": "bytes32"
        }
      ],
      "name": "payInsurance",
      "outputs": [],
      "payable": false,
      "stateMutability": "nonpayable",
      "type": "function"
    },
    {
      "constant": true,
      "inputs": [
        {
          "name": "flight",
          "type": "string"
        },
        {
          "name": "airline",
          "type": "address"
        },
        {
          "name": "timestamp",
          "type": "uint256"
        },
        {
          "name": "passenger",
          "type": "address"
        }
      ],
      "name": "getInsurancePaymentInfo",
      "outputs": [
        {
          "name": "",
          "type": "uint256"
        }
      ],
      "payable": false,
      "stateMutability": "view",
      "type": "function"
    },
    {
      "constant": false,
      "inputs": [
        {
          "name": "passengerKey",
          "type": "bytes32"
        },
        {
          "name": "passenger",
          "type": "address"
        }
      ],
      "name": "passengerCreditWithdraw",
      "outputs": [],
      "payable": true,
      "stateMutability": "payable",
      "type": "function"
    }
  ],
  "bytecode": "0x60806040526001600060146101000a81548160ff021916908315150217905550600060015560006002553480156200003657600080fd5b5060405162003b2238038062003b228339810180604052810190808051906020019092919080518201929190505050336000806101000a81548173ffffffffffffffffffffffffffffffffffffffff021916908373ffffffffffffffffffffffffffffffffffffffff160217905550620000c08282620000c8640100000000026401000000009004565b5050620005ea565b6001600760003373ffffffffffffffffffffffffffffffffffffffff1673ffffffffffffffffffffffffffffffffffffffff1681526020019081526020016000205414806200016357506000809054906101000a900473ffffffffffffffffffffffffffffffffffffffff1673ffffffffffffffffffffffffffffffffffffffff163373ffffffffffffffffffffffffffffffffffffffff16145b1515620001fe576040517f08c379a000000000000000000000000000000000000000000000000000000000815260040180806020018281038252603a8152602001807f43616c6c6572206973206e6f7420417574686f72697a656420746f206163636581526020017f7373206461746120636f6e74726163742066756e6374696f6e7300000000000081525060400191505060405180910390fd5b600060149054906101000a900460ff161515620002a9576040517f08c379a00000000000000000000000000000000000000000000000000000000081526004018080602001828103825260258152602001807f436f6e74726163742069732063757272656e746c79206e6f74206f706572617481526020017f696f6e616c00000000000000000000000000000000000000000000000000000081525060400191505060405180910390fd5b80600460008473ffffffffffffffffffffffffffffffffffffffff1673ffffffffffffffffffffffffffffffffffffffff1681526020019081526020016000206001019080519060200190620003019291906200053b565b506000600460008473ffffffffffffffffffffffffffffffffffffffff1673ffffffffffffffffffffffffffffffffffffffff16815260200190815260200160002060000160006101000a81548160ff02191690831515021790555081600460008473ffffffffffffffffffffffffffffffffffffffff1673ffffffffffffffffffffffffffffffffffffffff16815260200190815260200160002060020160016101000a81548173ffffffffffffffffffffffffffffffffffffffff021916908373ffffffffffffffffffffffffffffffffffffffff16021790555062000403600180546200051e64010000000002620033ed179091906401000000009004565b600181905550600154600460008473ffffffffffffffffffffffffffffffffffffffff1673ffffffffffffffffffffffffffffffffffffffff16815260200190815260200160002060030181905550600180541415620004be576001600460008473ffffffffffffffffffffffffffffffffffffffff1673ffffffffffffffffffffffffffffffffffffffff16815260200190815260200160002060020160006101000a81548160ff0219169083151502179055506200051a565b6000600460008473ffffffffffffffffffffffffffffffffffffffff1673ffffffffffffffffffffffffffffffffffffffff16815260200190815260200160002060020160006101000a81548160ff0219169083151502179055505b5050565b600081830190508281101515156200053257fe5b80905092915050565b828054600181600116156101000203166002900490600052602060002090601f016020900481019282601f106200057e57805160ff1916838001178555620005af565b82800160010185558215620005af579182015b82811115620005ae57825182559160200191906001019062000591565b5b509050620005be9190620005c2565b5090565b620005e791905b80821115620005e3576000816000905550600101620005c9565b5090565b90565b61352880620005fa6000396000f300608060405260043610610149576000357c0100000000000000000000000000000000000000000000000000000000900463ffffffff168063010c5c971461014b5780630577d6d5146101a6578063110466ed146101d15780632b821bd9146102005780633c8e1ce21461022b5780633ea8fc9b1461026f578063419ca9af146102db5780634c00257f14610311578063524b610014610363578063538a0d9c1461041f57806357721fee146104b257806358ac36a31461050d578063598512a3146105565780635df493811461058757806366d0ead31461069357806366d2190d146106ea57806367561d931461074557806380b271e714610788578063a1a5faf1146108e8578063c31a0f161461092b578063cd905dff14610974578063e48c4f51146109a3578063ee38a74914610a6a578063f3f55bd714610af3578063f785823b14610b1e575b005b34801561015757600080fd5b5061018c600480360381019080803573ffffffffffffffffffffffffffffffffffffffff169060200190929190505050610bc5565b604051808215151515815260200191505060405180910390f35b3480156101b257600080fd5b506101bb610c70565b6040518082815260200191505060405180910390f35b3480156101dd57600080fd5b506101fe600480360381019080803515159060200190929190505050610c76565b005b34801561020c57600080fd5b50610215610d57565b6040518082815260200191505060405180910390f35b61026d6004803603810190808035600019169060200190929190803573ffffffffffffffffffffffffffffffffffffffff169060200190929190505050610d76565b005b34801561027b57600080fd5b506102846112cc565b6040518080602001828103825283818151815260200191508051906020019060200280838360005b838110156102c75780820151818401526020810190506102ac565b505050509050019250505060405180910390f35b61030f600480360381019080803573ffffffffffffffffffffffffffffffffffffffff169060200190929190505050611328565b005b61036160048036038101908080356000191690602001909291908035600019169060200190929190803573ffffffffffffffffffffffffffffffffffffffff169060200190929190505050611584565b005b34801561036f57600080fd5b506103a4600480360381019080803573ffffffffffffffffffffffffffffffffffffffff169060200190929190505050611897565b6040518080602001828103825283818151815260200191508051906020019080838360005b838110156103e45780820151818401526020810190506103c9565b50505050905090810190601f1680156104115780820380516001836020036101000a031916815260200191505b509250505060405180910390f35b34801561042b57600080fd5b506104b0600480360381019080803590602001908201803590602001908080601f0160208091040260200160405190810160405280939291908181526020018383808284378201915050505050509192919290803573ffffffffffffffffffffffffffffffffffffffff1690602001909291908035906020019092919050505061197b565b005b3480156104be57600080fd5b506104f3600480360381019080803573ffffffffffffffffffffffffffffffffffffffff169060200190929190505050611d8e565b604051808215151515815260200191505060405180910390f35b34801561051957600080fd5b5061053c6004803603810190808035600019169060200190929190505050611de7565b604051808215151515815260200191505060405180910390f35b34801561056257600080fd5b506105856004803603810190808035600019169060200190929190505050611e1c565b005b34801561059357600080fd5b506105c8600480360381019080803573ffffffffffffffffffffffffffffffffffffffff16906020019092919050505061229f565b60405180806020018673ffffffffffffffffffffffffffffffffffffffff1673ffffffffffffffffffffffffffffffffffffffff1681526020018515151515815260200184151515158152602001838152602001828103825287818151815260200191508051906020019080838360005b83811015610654578082015181840152602081019050610639565b50505050905090810190601f1680156106815780820380516001836020036101000a031916815260200191505b50965050505050505060405180910390f35b34801561069f57600080fd5b506106d4600480360381019080803573ffffffffffffffffffffffffffffffffffffffff1690602001909291905050506124de565b6040518082815260200191505060405180910390f35b3480156106f657600080fd5b5061072b600480360381019080803573ffffffffffffffffffffffffffffffffffffffff1690602001909291905050506125e4565b604051808215151515815260200191505060405180910390f35b34801561075157600080fd5b50610786600480360381019080803573ffffffffffffffffffffffffffffffffffffffff16906020019092919050505061263d565b005b34801561079457600080fd5b50610819600480360381019080803590602001908201803590602001908080601f0160208091040260200160405190810160405280939291908181526020018383808284378201915050505050509192919290803573ffffffffffffffffffffffffffffffffffffffff169060200190929190803590602001909291905050506127f3565b6040518086151515158152602001806020018573ffffffffffffffffffffffffffffffffffffffff1673ffffffffffffffffffffffffffffffffffffffff1681526020018481526020018360001916600019168152602001828103825286818151815260200191508051906020019080838360005b838110156108a957808201518184015260208101905061088e565b50505050905090810190601f1680156108d65780820380516001836020036101000a031916815260200191505b50965050505050505060405180910390f35b3480156108f457600080fd5b50610929600480360381019080803573ffffffffffffffffffffffffffffffffffffffff169060200190929190505050612a92565b005b34801561093757600080fd5b5061095a6004803603810190808035600019169060200190929190505050612c46565b604051808215151515815260200191505060405180910390f35b34801561098057600080fd5b50610989612c7b565b604051808215151515815260200191505060405180910390f35b3480156109af57600080fd5b50610a54600480360381019080803590602001908201803590602001908080601f0160208091040260200160405190810160405280939291908181526020018383808284378201915050505050509192919290803573ffffffffffffffffffffffffffffffffffffffff16906020019092919080359060200190929190803573ffffffffffffffffffffffffffffffffffffffff169060200190929190505050612c91565b6040518082815260200191505060405180910390f35b348015610a7657600080fd5b50610af1600480360381019080803573ffffffffffffffffffffffffffffffffffffffff169060200190929190803590602001908201803590602001908080601f0160208091040260200160405190810160405280939291908181526020018383808284378201915050505050509192919290505050612e1d565b005b348015610aff57600080fd5b50610b0861325c565b6040518082815260200191505060405180910390f35b348015610b2a57600080fd5b50610baf600480360381019080803590602001908201803590602001908080601f0160208091040260200160405190810160405280939291908181526020018383808284378201915050505050509192919290803573ffffffffffffffffffffffffffffffffffffffff16906020019092919080359060200190929190505050613262565b6040518082815260200191505060405180910390f35b60008173ffffffffffffffffffffffffffffffffffffffff16600460008473ffffffffffffffffffffffffffffffffffffffff1673ffffffffffffffffffffffffffffffffffffffff16815260200190815260200160002060020160019054906101000a900473ffffffffffffffffffffffffffffffffffffffff1673ffffffffffffffffffffffffffffffffffffffff161415610c665760019050610c6b565b600090505b919050565b60025481565b6000809054906101000a900473ffffffffffffffffffffffffffffffffffffffff1673ffffffffffffffffffffffffffffffffffffffff163373ffffffffffffffffffffffffffffffffffffffff16141515610d3a576040517f08c379a000000000000000000000000000000000000000000000000000000000815260040180806020018281038252601c8152602001807f43616c6c6572206973206e6f7420636f6e7472616374206f776e65720000000081525060200191505060405180910390fd5b80600060146101000a81548160ff02191690831515021790555050565b60003073ffffffffffffffffffffffffffffffffffffffff1631905090565b60006001600760003373ffffffffffffffffffffffffffffffffffffffff1673ffffffffffffffffffffffffffffffffffffffff168152602001908152602001600020541480610e1257506000809054906101000a900473ffffffffffffffffffffffffffffffffffffffff1673ffffffffffffffffffffffffffffffffffffffff163373ffffffffffffffffffffffffffffffffffffffff16145b1515610eac576040517f08c379a000000000000000000000000000000000000000000000000000000000815260040180806020018281038252603a8152602001807f43616c6c6572206973206e6f7420417574686f72697a656420746f206163636581526020017f7373206461746120636f6e74726163742066756e6374696f6e7300000000000081525060400191505060405180910390fd5b600060149054906101000a900460ff161515610f56576040517f08c379a00000000000000000000000000000000000000000000000000000000081526004018080602001828103825260258152602001807f436f6e74726163742069732063757272656e746c79206e6f74206f706572617481526020017f696f6e616c00000000000000000000000000000000000000000000000000000081525060400191505060405180910390fd5b6001151560056000856000191660001916815260200190815260200160002060000160009054906101000a900460ff161515141515611023576040517f08c379a00000000000000000000000000000000000000000000000000000000081526004018080602001828103825260358152602001807f50617373656e67657220776173206e6f7420696e7375726564202d204d6f6e6581526020017f792063616e6e6f742062652077697468647261776e000000000000000000000081525060400191505060405180910390fd5b8173ffffffffffffffffffffffffffffffffffffffff1660056000856000191660001916815260200190815260200160002060000160019054906101000a900473ffffffffffffffffffffffffffffffffffffffff1673ffffffffffffffffffffffffffffffffffffffff1614151561112a576040517f08c379a00000000000000000000000000000000000000000000000000000000081526004018080602001828103825260338152602001807f50617373656e67657220776173206e6f7420696e737572656420616e6420636181526020017f6e6e6f74207769746864726177206d6f6e65790000000000000000000000000081525060400191505060405180910390fd5b600560008460001916600019168152602001908152602001600020600301549050600060056000856000191660001916815260200190815260200160002060030181905550803073ffffffffffffffffffffffffffffffffffffffff1631111515611249576040517f08c379a00000000000000000000000000000000000000000000000000000000081526004018080602001828103825260448152602001807f4461746120636f6e747261637420646f6573206e6f742068617665207375666681526020017f696369656e742066756e6473202d2043616e6e6f74207769746864726177206d81526020017f6f6e65790000000000000000000000000000000000000000000000000000000081525060600191505060405180910390fd5b600060056000856000191660001916815260200190815260200160002060000160006101000a81548160ff0219169083151502179055508173ffffffffffffffffffffffffffffffffffffffff166108fc829081150290604051600060405180830381858888f193505050501580156112c6573d6000803e3d6000fd5b50505050565b6060600680548060200260200160405190810160405280929190818152602001828054801561131e57602002820191906000526020600020905b81546000191681526020019060010190808311611306575b5050505050905090565b60008060149054906101000a900460ff1615156113d3576040517f08c379a00000000000000000000000000000000000000000000000000000000081526004018080602001828103825260258152602001807f436f6e74726163742069732063757272656e746c79206e6f74206f706572617481526020017f696f6e616c00000000000000000000000000000000000000000000000000000081525060400191505060405180910390fd5b6001600760003373ffffffffffffffffffffffffffffffffffffffff1673ffffffffffffffffffffffffffffffffffffffff16815260200190815260200160002054148061146d57506000809054906101000a900473ffffffffffffffffffffffffffffffffffffffff1673ffffffffffffffffffffffffffffffffffffffff163373ffffffffffffffffffffffffffffffffffffffff16145b1515611507576040517f08c379a000000000000000000000000000000000000000000000000000000000815260040180806020018281038252603a8152602001807f43616c6c6572206973206e6f7420417574686f72697a656420746f206163636581526020017f7373206461746120636f6e74726163742066756e6374696f6e7300000000000081525060400191505060405180910390fd5b6001600460008473ffffffffffffffffffffffffffffffffffffffff1673ffffffffffffffffffffffffffffffffffffffff16815260200190815260200160002060000160006101000a81548160ff02191690831515021790555034905061157a816002546133ed90919063ffffffff16565b6002819055505050565b60008060149054906101000a900460ff16151561162f576040517f08c379a00000000000000000000000000000000000000000000000000000000081526004018080602001828103825260258152602001807f436f6e74726163742069732063757272656e746c79206e6f74206f706572617481526020017f696f6e616c00000000000000000000000000000000000000000000000000000081525060400191505060405180910390fd5b6001600760003373ffffffffffffffffffffffffffffffffffffffff1673ffffffffffffffffffffffffffffffffffffffff1681526020019081526020016000205414806116c957506000809054906101000a900473ffffffffffffffffffffffffffffffffffffffff1673ffffffffffffffffffffffffffffffffffffffff163373ffffffffffffffffffffffffffffffffffffffff16145b1515611763576040517f08c379a000000000000000000000000000000000000000000000000000000000815260040180806020018281038252603a8152602001807f43616c6c6572206973206e6f7420417574686f72697a656420746f206163636581526020017f7373206461746120636f6e74726163742066756e6374696f6e7300000000000081525060400191505060405180910390fd5b34905061177b816002546133ed90919063ffffffff16565b600281905550600160056000856000191660001916815260200190815260200160002060000160006101000a81548160ff0219169083151502179055508160056000856000191660001916815260200190815260200160002060000160016101000a81548173ffffffffffffffffffffffffffffffffffffffff021916908373ffffffffffffffffffffffffffffffffffffffff1602179055508360056000856000191660001916815260200190815260200160002060010181600019169055503460056000856000191660001916815260200190815260200160002060020181905550600683908060018154018082558091505090600182039060005260206000200160009091929091909150906000191690555050505050565b6060600460008373ffffffffffffffffffffffffffffffffffffffff1673ffffffffffffffffffffffffffffffffffffffff1681526020019081526020016000206001018054600181600116156101000203166002900480601f01602080910402602001604051908101604052809291908181526020018280546001816001161561010002031660029004801561196f5780601f106119445761010080835404028352916020019161196f565b820191906000526020600020905b81548152906001019060200180831161195257829003601f168201915b50505050509050919050565b60006001600760003373ffffffffffffffffffffffffffffffffffffffff1673ffffffffffffffffffffffffffffffffffffffff168152602001908152602001600020541480611a1757506000809054906101000a900473ffffffffffffffffffffffffffffffffffffffff1673ffffffffffffffffffffffffffffffffffffffff163373ffffffffffffffffffffffffffffffffffffffff16145b1515611ab1576040517f08c379a000000000000000000000000000000000000000000000000000000000815260040180806020018281038252603a8152602001807f43616c6c6572206973206e6f7420417574686f72697a656420746f206163636581526020017f7373206461746120636f6e74726163742066756e6374696f6e7300000000000081525060400191505060405180910390fd5b600060149054906101000a900460ff161515611b5b576040517f08c379a00000000000000000000000000000000000000000000000000000000081526004018080602001828103825260258152602001807f436f6e74726163742069732063757272656e746c79206e6f74206f706572617481526020017f696f6e616c00000000000000000000000000000000000000000000000000000081525060400191505060405180910390fd5b8383836040516020018084805190602001908083835b602083101515611b965780518252602082019150602081019050602083039250611b71565b6001836020036101000a0380198251168184511680821785525050505050509050018373ffffffffffffffffffffffffffffffffffffffff1673ffffffffffffffffffffffffffffffffffffffff166c0100000000000000000000000002815260140182815260200193505050506040516020818303038152906040526040518082805190602001908083835b602083101515611c485780518252602082019150602081019050602083039250611c23565b6001836020036101000a03801982511681845116808217855250505050505090500191505060405180910390209050600160036000836000191660001916815260200190815260200160002060000160006101000a81548160ff021916908315150217905550836003600083600019166000191681526020019081526020016000206001019080519060200190611ce0929190613457565b508260036000836000191660001916815260200190815260200160002060020160006101000a81548173ffffffffffffffffffffffffffffffffffffffff021916908373ffffffffffffffffffffffffffffffffffffffff160217905550816003600083600019166000191681526020019081526020016000206003018190555080600360008360001916600019168152602001908152602001600020600401816000191690555050505050565b6000600460008373ffffffffffffffffffffffffffffffffffffffff1673ffffffffffffffffffffffffffffffffffffffff16815260200190815260200160002060000160009054906101000a900460ff169050919050565b600060036000836000191660001916815260200190815260200160002060000160009054906101000a900460ff169050919050565b600080600080606060006001600760003373ffffffffffffffffffffffffffffffffffffffff1673ffffffffffffffffffffffffffffffffffffffff168152602001908152602001600020541480611ec057506000809054906101000a900473ffffffffffffffffffffffffffffffffffffffff1673ffffffffffffffffffffffffffffffffffffffff163373ffffffffffffffffffffffffffffffffffffffff16145b1515611f5a576040517f08c379a000000000000000000000000000000000000000000000000000000000815260040180806020018281038252603a8152602001807f43616c6c6572206973206e6f7420417574686f72697a656420746f206163636581526020017f7373206461746120636f6e74726163742066756e6374696f6e7300000000000081525060400191505060405180910390fd5b600060149054906101000a900460ff161515612004576040517f08c379a00000000000000000000000000000000000000000000000000000000081526004018080602001828103825260258152602001807f436f6e74726163742069732063757272656e746c79206e6f74206f706572617481526020017f696f6e616c00000000000000000000000000000000000000000000000000000081525060400191505060405180910390fd5b600095505b6006805490508610156122965760068681548110151561202557fe5b90600052602060002001549450866000191660056000876000191660001916815260200190815260200160002060010154600019161415612289576005600086600019166000191681526020019081526020016000206002015493506120a8600261209a60038761340990919063ffffffff16565b61344190919063ffffffff16565b9250823073ffffffffffffffffffffffffffffffffffffffff163111156120f1578260056000876000191660001916815260200190815260200160002060030181905550612288565b608060405190810160405280604981526020017f496e737572616e636520436f6e7472616374206f6e20426c6f636b636861696e81526020017f206973206f7574206f662066756e6473202d2043616e6e6f7420706179206f6281526020017f6c69676174696f6e730000000000000000000000000000000000000000000000815250915060056000866000191660001916815260200190815260200160002060000160019054906101000a900473ffffffffffffffffffffffffffffffffffffffff1690507fbe931ab1c4a2ccbe630a3e384d17f3b47e29e5a5fff86dd8259afa3c3d2620ce8183604051808373ffffffffffffffffffffffffffffffffffffffff1673ffffffffffffffffffffffffffffffffffffffff16815260200180602001828103825283818151815260200191508051906020019080838360005b8381101561224c578082015181840152602081019050612231565b50505050905090810190601f1680156122795780820380516001836020036101000a031916815260200191505b50935050505060405180910390a15b5b8580600101965050612009565b50505050505050565b6060600080600080600460008773ffffffffffffffffffffffffffffffffffffffff1673ffffffffffffffffffffffffffffffffffffffff168152602001908152602001600020600101600460008873ffffffffffffffffffffffffffffffffffffffff1673ffffffffffffffffffffffffffffffffffffffff16815260200190815260200160002060020160019054906101000a900473ffffffffffffffffffffffffffffffffffffffff16600460008973ffffffffffffffffffffffffffffffffffffffff1673ffffffffffffffffffffffffffffffffffffffff16815260200190815260200160002060000160009054906101000a900460ff16600460008a73ffffffffffffffffffffffffffffffffffffffff1673ffffffffffffffffffffffffffffffffffffffff16815260200190815260200160002060020160009054906101000a900460ff16600460008b73ffffffffffffffffffffffffffffffffffffffff1673ffffffffffffffffffffffffffffffffffffffff16815260200190815260200160002060030154848054600181600116156101000203166002900480601f0160208091040260200160405190810160405280929190818152602001828054600181600116156101000203166002900480156124c45780601f10612499576101008083540402835291602001916124c4565b820191906000526020600020905b8154815290600101906020018083116124a757829003601f168201915b505050505094509450945094509450945091939590929450565b60008060149054906101000a900460ff161515612589576040517f08c379a00000000000000000000000000000000000000000000000000000000081526004018080602001828103825260258152602001807f436f6e74726163742069732063757272656e746c79206e6f74206f706572617481526020017f696f6e616c00000000000000000000000000000000000000000000000000000081525060400191505060405180910390fd5b6001600760008473ffffffffffffffffffffffffffffffffffffffff1673ffffffffffffffffffffffffffffffffffffffff1681526020019081526020016000205414156125da57600190506125df565b600090505b919050565b6000600460008373ffffffffffffffffffffffffffffffffffffffff1673ffffffffffffffffffffffffffffffffffffffff16815260200190815260200160002060000160009054906101000a900460ff169050919050565b600060149054906101000a900460ff1615156126e7576040517f08c379a00000000000000000000000000000000000000000000000000000000081526004018080602001828103825260258152602001807f436f6e74726163742069732063757272656e746c79206e6f74206f706572617481526020017f696f6e616c00000000000000000000000000000000000000000000000000000081525060400191505060405180910390fd5b6000809054906101000a900473ffffffffffffffffffffffffffffffffffffffff1673ffffffffffffffffffffffffffffffffffffffff163373ffffffffffffffffffffffffffffffffffffffff161415156127ab576040517f08c379a000000000000000000000000000000000000000000000000000000000815260040180806020018281038252601c8152602001807f43616c6c6572206973206e6f7420636f6e7472616374206f776e65720000000081525060200191505060405180910390fd5b6001600760008373ffffffffffffffffffffffffffffffffffffffff1673ffffffffffffffffffffffffffffffffffffffff1681526020019081526020016000208190555050565b600060606000806000808888886040516020018084805190602001908083835b6020831015156128385780518252602082019150602081019050602083039250612813565b6001836020036101000a0380198251168184511680821785525050505050509050018373ffffffffffffffffffffffffffffffffffffffff1673ffffffffffffffffffffffffffffffffffffffff166c0100000000000000000000000002815260140182815260200193505050506040516020818303038152906040526040518082805190602001908083835b6020831015156128ea57805182526020820191506020810190506020830392506128c5565b6001836020036101000a0380198251168184511680821785525050505050509050019150506040518091039020905060036000826000191660001916815260200190815260200160002060000160009054906101000a900460ff1660036000836000191660001916815260200190815260200160002060010160036000846000191660001916815260200190815260200160002060020160009054906101000a900473ffffffffffffffffffffffffffffffffffffffff166003600085600019166000191681526020019081526020016000206003015460036000866000191660001916815260200190815260200160002060040154838054600181600116156101000203166002900480601f016020809104026020016040519081016040528092919081815260200182805460018160011615610100020316600290048015612a755780601f10612a4a57610100808354040283529160200191612a75565b820191906000526020600020905b815481529060010190602001808311612a5857829003601f168201915b505050505093509550955095509550955050939792965093509350565b600060149054906101000a900460ff161515612b3c576040517f08c379a00000000000000000000000000000000000000000000000000000000081526004018080602001828103825260258152602001807f436f6e74726163742069732063757272656e746c79206e6f74206f706572617481526020017f696f6e616c00000000000000000000000000000000000000000000000000000081525060400191505060405180910390fd5b6000809054906101000a900473ffffffffffffffffffffffffffffffffffffffff1673ffffffffffffffffffffffffffffffffffffffff163373ffffffffffffffffffffffffffffffffffffffff16141515612c00576040517f08c379a000000000000000000000000000000000000000000000000000000000815260040180806020018281038252601c8152602001807f43616c6c6572206973206e6f7420636f6e7472616374206f776e65720000000081525060200191505060405180910390fd5b600760008273ffffffffffffffffffffffffffffffffffffffff1673ffffffffffffffffffffffffffffffffffffffff1681526020019081526020016000206000905550565b600060056000836000191660001916815260200190815260200160002060000160009054906101000a900460ff169050919050565b60008060149054906101000a900460ff16905090565b600080858585856040516020018085805190602001908083835b602083101515612cd05780518252602082019150602081019050602083039250612cab565b6001836020036101000a0380198251168184511680821785525050505050509050018473ffffffffffffffffffffffffffffffffffffffff1673ffffffffffffffffffffffffffffffffffffffff166c010000000000000000000000000281526014018381526020018273ffffffffffffffffffffffffffffffffffffffff1673ffffffffffffffffffffffffffffffffffffffff166c010000000000000000000000000281526014019450505050506040516020818303038152906040526040518082805190602001908083835b602083101515612dc45780518252602082019150602081019050602083039250612d9f565b6001836020036101000a0380198251168184511680821785525050505050509050019150506040518091039020905060056000826000191660001916815260200190815260200160002060030154915050949350505050565b6001600760003373ffffffffffffffffffffffffffffffffffffffff1673ffffffffffffffffffffffffffffffffffffffff168152602001908152602001600020541480612eb757506000809054906101000a900473ffffffffffffffffffffffffffffffffffffffff1673ffffffffffffffffffffffffffffffffffffffff163373ffffffffffffffffffffffffffffffffffffffff16145b1515612f51576040517f08c379a000000000000000000000000000000000000000000000000000000000815260040180806020018281038252603a8152602001807f43616c6c6572206973206e6f7420417574686f72697a656420746f206163636581526020017f7373206461746120636f6e74726163742066756e6374696f6e7300000000000081525060400191505060405180910390fd5b600060149054906101000a900460ff161515612ffb576040517f08c379a00000000000000000000000000000000000000000000000000000000081526004018080602001828103825260258152602001807f436f6e74726163742069732063757272656e746c79206e6f74206f706572617481526020017f696f6e616c00000000000000000000000000000000000000000000000000000081525060400191505060405180910390fd5b80600460008473ffffffffffffffffffffffffffffffffffffffff1673ffffffffffffffffffffffffffffffffffffffff1681526020019081526020016000206001019080519060200190613051929190613457565b506000600460008473ffffffffffffffffffffffffffffffffffffffff1673ffffffffffffffffffffffffffffffffffffffff16815260200190815260200160002060000160006101000a81548160ff02191690831515021790555081600460008473ffffffffffffffffffffffffffffffffffffffff1673ffffffffffffffffffffffffffffffffffffffff16815260200190815260200160002060020160016101000a81548173ffffffffffffffffffffffffffffffffffffffff021916908373ffffffffffffffffffffffffffffffffffffffff160217905550613143600180546133ed90919063ffffffff16565b600181905550600154600460008473ffffffffffffffffffffffffffffffffffffffff1673ffffffffffffffffffffffffffffffffffffffff168152602001908152602001600020600301819055506001805414156131fc576001600460008473ffffffffffffffffffffffffffffffffffffffff1673ffffffffffffffffffffffffffffffffffffffff16815260200190815260200160002060020160006101000a81548160ff021916908315150217905550613258565b6000600460008473ffffffffffffffffffffffffffffffffffffffff1673ffffffffffffffffffffffffffffffffffffffff16815260200190815260200160002060020160006101000a81548160ff0219169083151502179055505b5050565b60015481565b600080848484336040516020018085805190602001908083835b6020831015156132a1578051825260208201915060208101905060208303925061327c565b6001836020036101000a0380198251168184511680821785525050505050509050018473ffffffffffffffffffffffffffffffffffffffff1673ffffffffffffffffffffffffffffffffffffffff166c010000000000000000000000000281526014018381526020018273ffffffffffffffffffffffffffffffffffffffff1673ffffffffffffffffffffffffffffffffffffffff166c010000000000000000000000000281526014019450505050506040516020818303038152906040526040518082805190602001908083835b6020831015156133955780518252602082019150602081019050602083039250613370565b6001836020036101000a03801982511681845116808217855250505050505090500191505060405180910390209050600560008260001916600019168152602001908152602001600020600201549150509392505050565b6000818301905082811015151561340057fe5b80905092915050565b60008083141561341c576000905061343b565b818302905081838281151561342d57fe5b0414151561343757fe5b8090505b92915050565b6000818381151561344e57fe5b04905092915050565b828054600181600116156101000203166002900490600052602060002090601f016020900481019282601f1061349857805160ff19168380011785556134c6565b828001600101855582156134c6579182015b828111156134c55782518255916020019190600101906134aa565b5b5090506134d391906134d7565b5090565b6134f991905b808211156134f55760008160009055506001016134dd565b5090565b905600a165627a7a72305820b8bbf2ac6dad79dd56804f3e2b6e7545899f97ab810558f720181cc9601da3140029",
  "source": "pragma solidity ^0.4.24;\n\nimport \"../node_modules/openzeppelin-solidity/contracts/math/SafeMath.sol\";\n\ncontract FlightSuretyData {\n    using SafeMath for uint256;\n\n    /********************************************************************************************/\n    /*                                       DATA VARIABLES                                     */\n    /********************************************************************************************/\n\n    address private contractOwner;                                      // Account used to deploy contract\n    bool private operational = true;                                    // Blocks all state changes throughout the contract if false\n    uint256 public airlineCounter = 0; //counter to track total number of airlines registered\n    uint256 public insuranceBalance = 0; // variable to track total value stored in the contract\n\n    // RG: Moved the struct Flight and mapping flights from app contract to data contract because I want to persist this data even if app is upgraded\n    // struct Flight used to store information about the flight\n    struct Flight {\n        bool isRegistered;\n        string flight;\n        address airline;\n        uint256 timestamp;\n        bytes32 key;\n    }\n    mapping(bytes32 => Flight) private flights; //Mapping to store each flight information in the flight struct\n\n    //RG: Struct to Store Airlines data\n    // bool isApproved: used to track if the airline has paid the 10 ether to participate in the insurance program\n    // bool isFirst: Used to track if that particular airline was the first airline to be added\n    // uint256 serialNumber: Used to track the order in which that ailine was added\n    // addresse airlineAddress: Will be used to store the address of the registered airline\n    struct Airline {\n        bool isApproved;\n        string name;\n        bool isFirst;\n        address airlineAddress;\n        uint256 serialNumber;\n    }\n\n    //RG: Store all the registered airlines in a mapping: Map address airlineAddress to struct Airline\n    //\n    mapping(address => Airline) private airlines; \n\n    // Data structure to store individual passenger inforamtion\n    struct Passenger {\n        bool isInsured;\n        address passengerAddress;\n        bytes32 flightKey;\n        uint256 premiumPaid;\n        uint256 insuranceDisbursed;\n    }\n\n    // Mapping to store all the passengers with a key = passengerKey and value = Struct Passenger\n    mapping(bytes32 => Passenger) private passengers; \n\n    // Store all the keys of the passenger + flight combination who paid for insurance for a particular flight\n    bytes32[] private passengerKeys;\n\n\n    //RG: setting up security of this contract by allowing the owner to set which addresses including contract addresses can access this contract functions\n    //RG: Store address with a corresponding mapping value = 1 for authorized addresses which can call the functions of this contract\n    mapping(address => uint256) authorizedContracts;\n\n    /********************************************************************************************/\n    /*                                       EVENT DEFINITIONS                                  */\n    /********************************************************************************************/\n\n    // Event fired when the data contract runs out of money to make insurance payments to \"passenger\" address\n    event OutofBalance(address passenger, string result);\n\n\n    /**\n    * @dev Constructor\n    *      The deploying account becomes contractOwner\n    *      address airlineAddress: first airline to be registered when this contract is first deployed\n    *      string airlineName: Name of the airlines being registered\n    */\n    constructor\n                                (address airlineAddress,\n                                string memory airlineName  \n                                ) \n                                public \n    {\n        // store the address of the contract owner who first deployed this contract\n        contractOwner = msg.sender;\n        // Register the first airline at contract deployment to the Blockchain\n        registerAirline(airlineAddress, airlineName);\n\n    }\n\n    /********************************************************************************************/\n    /*                                       FUNCTION MODIFIERS                                 */\n    /********************************************************************************************/\n\n    // Modifiers help avoid duplication of code. They are typically used to validate something\n    // before a function is allowed to be executed.\n\n    /**\n    * @dev Modifier that requires the \"operational\" boolean variable to be \"true\"\n    *      This is used on all state changing functions to pause the contract in \n    *      the event there is an issue that needs to be fixed\n    */\n    modifier requireIsOperational() \n    {\n        require(operational, \"Contract is currently not operational\");\n        _;  // All modifiers require an \"_\" which indicates where the function body will be added\n    }\n\n    /**\n    * @dev Modifier that requires the \"ContractOwner\" account to be the function caller\n    */\n    modifier requireContractOwner()\n    {\n        require(msg.sender == contractOwner, \"Caller is not contract owner\");\n        _;\n    }\n\n    /**\n    *RG\n    * @dev Modifier that requires the caller of the function is authorized address to access data contract functions\n    * The owner of the contract is always allowed to execute any function of this contract. \n    */\n    modifier requireAuthorizedContract()\n    {\n        require((authorizedContracts[msg.sender] == 1||msg.sender == contractOwner), \"Caller is not Authorized to access data contract functions\");\n        _;\n    }\n\n\n    /********************************************************************************************/\n    /*                                       UTILITY FUNCTIONS                                  */\n    /********************************************************************************************/\n\n    /**\n    * @dev Get operating status of contract\n    *\n    * @return A bool that is the current operating status\n    * No modifiers to restrict the access of this function so anyone can call this function\n    */      \n    //RG: Changed the function to \"external\" visibility\n    // This function is expected to be called only from outside of this contract. We alreay have the modifier requireIsOperational() for using inside of this contract\n    // It is just a getter function. The variable \"operational\" was declared private so we need a getter function to access it's value from outside\n    function isOperational() \n                            external \n                            view \n                            returns(bool) \n    {\n        return operational;\n    }\n\n\n    /**\n    * @dev Sets contract operations on/off by setting the boolean variable \"operational\" true or false\n    * \n    * When variable \"operational\" is set to false, all state changing transactions except for this one will fail\n    * The lockup of the functions is enabled using the requireOperational() modifier on all the functions\n    * Only owner can call this function for security\n    */    \n    function setOperatingStatus\n                            (\n                                bool mode\n                            ) \n                            external\n                            requireContractOwner \n    {\n        operational = mode;\n    }\n\n    /********************************************************************************************/\n    /*                                     SMART CONTRACT FUNCTIONS                             */\n    /********************************************************************************************/\n\n    /**\n    * RG\n    * @dev Add the contract address to mapping authorizedCotnracts to track authorized callers of this data contract\n    * The contract owner will add the FlightSuretyApp contract address as an approved address. \n    * This will give the app contract access to the functions of this data contract\n     */\n     function authorizeContract(address authorizedAddress) external requireIsOperational requireContractOwner {\n         authorizedContracts[authorizedAddress] = 1;\n     }\n\n    /** \n    *\n    * @dev delete the contract address from mapping authorizedContracts to deauthorized callers of this data contract\n    */\n     function deAuthorizeContract(address authorizedAddress) external requireIsOperational requireContractOwner {\n         delete authorizedContracts[authorizedAddress];\n     }\n\n    //Added this function to test addition of authorized contract addresses is working properly\n\n    function isAuthorizedContract(address contractAddress) public view requireIsOperational returns(uint256)  \n    {\n        if(authorizedContracts[contractAddress] == 1) {\n            return 1;\n        }\n        else {\n            return 0;\n        }\n    }\n\n   /**\n    * @dev Register a new airline and store the airline information to the blockchain in the mapping \"airlines\"\n    *      Can only be called from FlightSuretyApp contract using the require modifier\n    *\n    */   \n    function registerAirline\n                            (address airlineAddress,\n                            string memory airlineName  \n                            )\n                            public\n                            requireAuthorizedContract requireIsOperational\n    {\n        airlines[airlineAddress].name = airlineName;\n        airlines[airlineAddress].isApproved = false;\n        airlines[airlineAddress].airlineAddress = airlineAddress;\n        airlineCounter = airlineCounter.add(1);\n        airlines[airlineAddress].serialNumber = airlineCounter;\n        if(airlineCounter == 1) {\n            airlines[airlineAddress].isFirst = true;\n        }\n        else {\n            airlines[airlineAddress].isFirst = false;\n        }\n    }\n\n// function to retrieve the mapping \"airlines\" to view the data stored on the blockchain for a particular\n// registered airline.\n    function airlineInfoReturn(address airlineAddress) external view returns\n    (\n        string memory airlineName,\n        address airlineAddress1,\n        bool isApproved,\n        bool isFirst,\n        uint256 serialNumber\n    )\n    {\n        return\n        (\n            airlines[airlineAddress].name,\n            airlines[airlineAddress].airlineAddress,\n            airlines[airlineAddress].isApproved,\n            airlines[airlineAddress].isFirst,\n            airlines[airlineAddress].serialNumber\n        );\n    }\n\n// function getAirlineName: Getter function to obtain name of the airline\n    function getAirlineName(address airlineAddress) external view returns(string memory airlineName) {\n        return airlines[airlineAddress].name;\n    }\n\n// function getAirlineStatus: Getter function to obtain approval status of the airline\n    function getAirlineStatus(address airlineAddress) external view returns(bool) {\n        return airlines[airlineAddress].isApproved;\n    }\n\n\n//  Getter function to check if a particular airline was already registered.\n    function isAirlineRegistered(address airline) public view returns(bool) {\n        if(airlines[airline].airlineAddress == airline) {\n            return true;\n        }\n        else {return false;}\n    }\n\n// function approveAirline(): Add airline to the approved list once they pay 10 ether to participate\n\n    function approveAirline(address airlineAddress) external payable requireIsOperational requireAuthorizedContract \n    {\n        airlines[airlineAddress].isApproved = true; \n        uint256 valueSent = msg.value;\n        insuranceBalance = insuranceBalance.add(valueSent);\n    }\n\n//  Getter function to check if a particular airline was already approved to participate in insurance pool.\n    function isAirlineApproved(address airline) public view returns(bool) {\n        return airlines[airline].isApproved;\n    }\n\n\n//function getInsuranceBalance(): Getter function to retrieve value stored in the contract\n\n    function getInsuranceBalance() external view returns(uint256) {\n       return address(this).balance;\n       // return insuranceBalance;\n    }\n    \n\n// function registerFlight(): Registers a flight if the airline is an approved airline\n    function registerFlight(string memory flight, address airline, uint256 timestamp)\n                            public\n                            requireAuthorizedContract requireIsOperational\n    {\n        bytes32 key = keccak256(abi.encodePacked(flight, airline, timestamp));\n        flights[key].isRegistered = true;\n        flights[key].flight = flight;\n        flights[key].airline = airline;\n        flights[key].timestamp = timestamp;\n        flights[key].key = key;\n    }\n\n// function to retrieve the mapping \"flights\" to view the data stored on the blockchain for a particular\n// registered Flight.\n    function flightInfoReturn(string memory flight, address airline, uint256 timestamp) public view returns\n    (\n        bool isRegistered,\n        string memory flightName,\n        address airlineAddress,\n        uint256 flightTimestamp,\n        bytes32 key\n    )\n    {\n        bytes32 flightKey = keccak256(abi.encodePacked(flight, airline, timestamp));\n        return\n        (\n            flights[flightKey].isRegistered,\n            flights[flightKey].flight,\n            flights[flightKey].airline,\n            flights[flightKey].timestamp,\n            flights[flightKey].key\n        );\n    }\n\n/**\n*   @dev Function to check to if the given flight was registered by the airline\n */\n    function isFlightRegistered(bytes32 flightKey) external view returns(bool) {\n        return flights[flightKey].isRegistered;\n    }\n    \n\n/**\n*   @dev Function to check to if the passenger already bought insurance for this flight\n */\n    function isPassengerInsured(bytes32 passengerKey) external view returns(bool) {\n        return passengers[passengerKey].isInsured;\n    }\n\n\n\n/**\n*   @dev Function to let passenger buy insurance and store the money into this contract and also store data\n*   of the passenger into a data structure\n */\n\n    function buyFlightInsurance(bytes32 flightKey, bytes32 passengerKey, address passengerAdd) external payable \n            requireIsOperational requireAuthorizedContract\n    {\n        uint256 valueSent = msg.value;\n        insuranceBalance = insuranceBalance.add(valueSent);\n        passengers[passengerKey].isInsured = true;\n        passengers[passengerKey].passengerAddress = passengerAdd;\n        passengers[passengerKey].flightKey = flightKey;\n        passengers[passengerKey].premiumPaid = msg.value;\n        passengerKeys.push(passengerKey);\n\n    }\n\n/**\n*   @dev Function to obtain the insurance premium passengers[0] paid and is stored on the blockchain\n */\n    function getPassengerPayment(string memory flight, address airline, uint256 timestamp) public view returns(uint256) {\n        bytes32 passengerKey = keccak256(abi.encodePacked(flight, airline, timestamp, msg.sender));\n        return passengers[passengerKey].premiumPaid;\n    }\n\n/**\n*   @dev Function to obtain all the passengerKeys stored on blockchain\n*/\n    function getPassengerKeys() public view returns(bytes32[] memory) {\n        return passengerKeys;\n    }\n\n/**\n*   @dev Function to credit insurance payments to all eligible passengers whose flights got delayed\n*/  \n    function payInsurance(bytes32 flightKey) external requireAuthorizedContract requireIsOperational {\n        for(uint i=0; i<passengerKeys.length; i++) {\n            bytes32 passengerKey = passengerKeys[i];\n            if(passengers[passengerKey].flightKey == flightKey) {\n                uint256 premiumPaid = passengers[passengerKey].premiumPaid;\n                uint256 amountOwed = premiumPaid.mul(3).div(2);\n                if(address(this).balance > amountOwed) {\n                    passengers[passengerKey].insuranceDisbursed = amountOwed;\n                }\n                else {\n                    string memory result = 'Insurance Contract on Blockchain is out of funds - Cannot pay obligations';\n                    address passengerUnpaid = passengers[passengerKey].passengerAddress;\n                    emit OutofBalance(passengerUnpaid, result);\n                }\n            }\n        }\n    }\n\n/**\n*   @dev Function to obtain the insurance amount a particular \"passenger\" was paid due to delayed flight\n*/\n    function getInsurancePaymentInfo(string memory flight, address airline, uint256 timestamp, address passenger) public view returns(uint256) {\n        bytes32 passengerKey = keccak256(abi.encodePacked(flight, airline, timestamp, passenger));\n        return passengers[passengerKey].insuranceDisbursed;\n    }\n\n\n/**\n*   @dev Function to withdraw passenger credit balance\n*/\n    function passengerCreditWithdraw(bytes32 passengerKey, address passenger) external payable requireAuthorizedContract requireIsOperational \n    {\n        require(passengers[passengerKey].isInsured == true, 'Passenger was not insured - Money cannot be withdrawn');\n        require(passengers[passengerKey].passengerAddress == passenger,'Passenger was not insured and cannot withdraw money');\n        uint256 creditAmount = passengers[passengerKey].insuranceDisbursed;\n        passengers[passengerKey].insuranceDisbursed = 0;\n        require(address(this).balance > creditAmount, 'Data contract does not have sufficient funds - Cannot withdraw money');\n        passengers[passengerKey].isInsured = false;\n        passenger.transfer(creditAmount);\n\n    }\n\n\n\n    /**\n    * @dev Fallback function for funding smart contract.\n    *\n    */\n    function() \n                            external \n                            payable \n    {\n    }\n\n\n}\n\n",
  "sourcePath": "/Users/Raj/Documents/Programming/Blockchain_Nano_Degree/term2/flightSurety/FlightSurety/contracts/FlightSuretyData.sol",
  "compiler": {
    "name": "solc",
    "version": "0.4.26+commit.4563c3fc.Emscripten.clang"
  },
  "schemaVersion": "3.0.9",
  "updatedAt": "2019-10-06T06:12:16.163Z",
  "devdoc": {
    "methods": {
      "authorizeContract(address)": {
        "details": "Add the contract address to mapping authorizedCotnracts to track authorized callers of this data contract The contract owner will add the FlightSuretyApp contract address as an approved address.  This will give the app contract access to the functions of this data contract"
      },
      "buyFlightInsurance(bytes32,bytes32,address)": {
        "details": "Function to let passenger buy insurance and store the money into this contract and also store data  of the passenger into a data structure"
      },
      "deAuthorizeContract(address)": {
        "details": "delete the contract address from mapping authorizedContracts to deauthorized callers of this data contract"
      },
      "getInsurancePaymentInfo(string,address,uint256,address)": {
        "details": "Function to obtain the insurance amount a particular \"passenger\" was paid due to delayed flight"
      },
      "getPassengerKeys()": {
        "details": "Function to obtain all the passengerKeys stored on blockchain"
      },
      "getPassengerPayment(string,address,uint256)": {
        "details": "Function to obtain the insurance premium passengers[0] paid and is stored on the blockchain"
      },
      "isFlightRegistered(bytes32)": {
        "details": "Function to check to if the given flight was registered by the airline"
      },
      "isOperational()": {
        "details": "Get operating status of contract",
        "return": "A bool that is the current operating status No modifiers to restrict the access of this function so anyone can call this function"
      },
      "isPassengerInsured(bytes32)": {
        "details": "Function to check to if the passenger already bought insurance for this flight"
      },
      "passengerCreditWithdraw(bytes32,address)": {
        "details": "Function to withdraw passenger credit balance"
      },
      "payInsurance(bytes32)": {
        "details": "Function to credit insurance payments to all eligible passengers whose flights got delayed"
      },
      "registerAirline(address,string)": {
        "details": "Register a new airline and store the airline information to the blockchain in the mapping \"airlines\"     Can only be called from FlightSuretyApp contract using the require modifier    "
      },
      "setOperatingStatus(bool)": {
        "details": "Sets contract operations on/off by setting the boolean variable \"operational\" true or false     * When variable \"operational\" is set to false, all state changing transactions except for this one will fail The lockup of the functions is enabled using the requireOperational() modifier on all the functions Only owner can call this function for security"
      }
    }
  },
  "userdoc": {
    "methods": {
      "authorizeContract(address)": {
        "notice": "RG"
      },
      "deAuthorizeContract(address)": {
        "notice": "G"
      }
    }
  }
}